:100000005EC0000003C4000028C4000080C00000DF
:100010007EC000007CC000007AC000000C9445083F
:1000200076C0000074C0000072C0000070C0000004
:100030006EC000000C94AB086AC0000068C00000ED
:1000400033C4000064C000007EC60000AEC60000DD
:100050005EC000005CC000005AC0000058C0000034
:1000600056C0000054C0000000000008000201005B
:100070000003040700000000000000000102040863
:100080001020408001020408102001020408102002
:10009000040404040404040402020202020203032E
:1000A0000303030300000000250028002B000000CC
:1000B0000000240027002A000200FA066607112427
:1000C0001FBECFEFD8E0DEBFCDBF11E0A0E0B1E0B2
:1000D000E2E0F6E102C005900D92A435B107D9F730
:1000E00022E0A4E5B1E001C01D92A43EB207E1F711
:1000F00010E0CFE5D0E004C02197FE010E94F90A8C
:10010000CD35D107C9F70E9449090C94FF0A78CF71
:10011000CF92DF92EF92FF926B017C018EE0C816C6
:10012000D104E104F10428F48EE0C80ED11CE11CD6
:10013000F11C60E08C2D83D4C601FF90EF90DF901E
:10014000CF9008950895CF93DF93EB0132D4998334
:100150008883DF91CF9108950895662311F061E0BF
:1001600001C060E06CC4662311F061E001C060E092
:10017000A2C4FC0191E08091E302811190E091839F
:1001800008958F929F92AF92BF92CF92DF92EF929B
:10019000FF920F931F93CF93DF9300D0CDB7DEB7BD
:1001A0008091E3028F5F823318F48093E30202C0F0
:1001B0001092E302C0900E01D0900F01E090100168
:1001C000F0901101A7019601609118027091190237
:1001D00080911A0290911B020E94F109882341F03C
:1001E000C0921802D0921902E0921A02F0921B02F9
:1001F0008091160290911702AFDF43E050E0BE01FC
:100200006F5F7F4F80911602909117029CDF2981CA
:100210003A81213283E0380790F4293582E03807AB
:1002200088F4213981E0380790F481E0293C3105D8
:1002300008F480E0E82E082FF82E182F0DC001E0FA
:10024000F12C03C001E0FF24F39410E004C001E0AE
:10025000FF24F39411E0E12C809016019090170197
:10026000A0901801B0901901A501940160914E026F
:1002700070914F0280915002909151020E94F109B9
:10028000882341F080924E0290924F02A092500239
:10029000B09251026E2D82E066DF80901A0190903C
:1002A0001B01A0901C01B0901D01A501940160915B
:1002B00044027091450280914602909147020E944B
:1002C000F109882341F08092440290924502A09265
:1002D0004602B0924702612F83E045DF80901E0105
:1002E00090901F01A0902001B0902101A5019401E0
:1002F00060913A0270913B0280913C0290913D02E4
:100300000E94F109882341F080923A0290923B02C8
:10031000A0923C02B0923D026F2D84E024DFC09099
:100320002201D0902301E0902401F0902501A70143
:100330009601609130027091310280913202909169
:1003400033020E94F109882341F0C0923002D0921A
:100350003102E0923202F0923302602F85E003DF37
:10036000C0900A01D0900B01E0900C01F0900D01BB
:10037000A7019601609126027091270280912802C0
:10038000909129020E94F109882341F0C09226022F
:10039000D0922702E0922802F09229028091240252
:1003A00090912502D9DE43E050E0BE016F5F7F4FA0
:1003B0008091240290912502C6DE0F900F90DF916C
:1003C000CF911F910F91FF90EF90DF90CF90BF9052
:1003D000AF909F908F9008954F925F926F927F920F
:1003E0008F929F92AF92BF92CF92DF92EF92FF9245
:1003F0008090DC029090DD02A090DE02B090DF02DF
:10040000C501B4010E94230A2B013C0120912E0159
:1004100030912F014091300150913101E2D787FF97
:100420000BC0B7FC09C0C0902601D0902701E09016
:100430002801F090290103C0C12CD12C760120E0C5
:1004400030E040E85FE360912A0170912B018091D8
:100450002C0190912D0160D79B01AC01C301B20129
:100460000E94D30A87FD09C01092DC021092DD02BF
:100470001092DE021092DF020DC08FEF881A980AE8
:10048000A80AB80A8092DC029092DD02A092DE02F5
:10049000B092DF028090120190901301A09014019D
:1004A000B0901501A5019401609158027091590214
:1004B00080915A0290915B0294D7882341F08092F8
:1004C000580290925902A0925A02B0925B0220E028
:1004D00030E040E853E4C701B60183D787FF0DC081
:1004E00020E030E0A901C701B6010E94D30A87FDD0
:1004F00006C0C701B60179D703C06FEF01C060E045
:1005000086E0FF90EF90DF90CF90BF90AF909F90EC
:100510008F907F906F905F904F9025CE2F923F925B
:100520004F925F926F927F928F929F92AF92BF9203
:10053000CF92DF92EF92FF920F931F93CF93DF93AF
:100540001092E0021092E1021092E2021092E30295
:10055000CEE0D2E082EDFE0111928A95E9F7ECE55A
:10056000F2E082E3882E808293E3992E90925D02DE
:1005700024E3222E20925E0235E3332E30925F0276
:1005800046E3442E4092600257E3552E509261029A
:1005900068E3662E6092620279E3772E70926302BE
:1005A00011E31093640280E3809365021093660266
:1005B00010936702109368028092690210936A0296
:1005C00090926B02FF83EE83EAE0AE2EE1E0BE2E56
:1005D000F50184819581A681B7818A879B87AC8745
:1005E000BD87C12CD12C7601C394C982DA82EB82FB
:1005F000FC8262E070E080E090E08ADD9987888785
:1006000020E030E0A90160E070E09CDD01E00D83B6
:100610001AAEF50184859585A685B78580934E022F
:1006200090934F02A0935002B093510210924D024A
:10063000CBAEDCAEEDAEFEAE61E082E08EDD0093CF
:100640004D0218AAF50180899189A289B3898EABE0
:100650009FABA8AFB9AF1DAAC9AADAAAEBAAFCAA98
:1006600061E083E07ADD0DAB1EA2F50184899589F6
:10067000A689B7898CA79DA7AEA7BFA71BA6CFA2A7
:10068000D8A6E9A6FAA661E084E067DD0BA71C8E78
:10069000F501808D918DA28DB38D8AA39BA3ACA310
:1006A000BDA319A2CD8EDE8EEF8EF8A261E085E0AB
:1006B00054DD09A31E86ECE9F2E0808290929D024F
:1006C00020929E0230929F024092A0025092A1027C
:1006D0006092A2027092A3021093A40280E380931E
:1006E000A5021093A6021093A7021093A80280926D
:1006F000A9021093AA029092AB02FD8BEC8BF5013C
:1007000080819181A281B381888F998FAA8FBB8FBD
:100710001B8ACF86D88AE98AFA8A60E070E0CB012A
:10072000F7DC9F8B8E8B20E030E0A90160E070E069
:1007300009DD0B8B1092DC021092DD021092DE02BA
:100740001092DF0210925202F50180859185A285F8
:10075000B3858093580290935902A0935A02B093A4
:100760005B02C7E5D2E01882C0925302D0925402D5
:10077000E0925502F092560261E086E0EEDC0883DA
:10078000DF91CF911F910F91FF90EF90DF90CF906D
:10079000BF90AF909F908F907F906F905F904F90A1
:1007A0003F902F90089580910E02811103C081E047
:1007B00080930E0280914802811103C081E08093F2
:1007C000480280913E02811103C081E080933E0285
:1007D00080913402811103C081E0809334028091C2
:1007E0002A02811103C081E080932A0280911C02B9
:1007F000811103C081E080931C028091520281111B
:1008000003C081E080935202089508951F920F92D1
:100810000FB60F9211242F933F934F935F936F93D3
:100820007F938F939F93AF93BF93EF93FF93E09149
:100830003601F09137010995FF91EF91BF91AF918A
:100840009F918F917F916F915F914F913F912F91E8
:100850000F900FBE0F901F9018951F920F920FB61A
:100860000F9211242F933F934F935F936F937F9336
:100870008F939F93AF93BF93EF93FF93E0913801D2
:10088000F09139010995FF91EF91BF91AF919F913F
:100890008F917F916F915F914F913F912F910F9029
:1008A0000FBE0F901F9018951F920F920FB60F92C8
:1008B00011242F933F938F939F93AF93BF93809176
:1008C000550190915601A0915701B0915801309176
:1008D000540123E0230F2D3720F40196A11DB11DF3
:1008E00005C026E8230F0296A11DB11D20935401D7
:1008F0008093550190935601A0935701B0935801EE
:100900008091590190915A01A0915B01B0915C01D5
:100910000196A11DB11D8093590190935A01A09396
:100920005B01B0935C01BF91AF919F918F913F911B
:100930002F910F900FBE0F901F901895789484B54B
:10094000826084BD84B5816084BD85B5826085BDCB
:1009500085B5816085BDEEE6F0E0808181608083B1
:10096000E1E8F0E010828081826080838081816094
:100970008083E0E8F0E0808181608083E1EBF0E05B
:10098000808184608083E0EBF0E0808181608083FF
:10099000EAE7F0E0808184608083808182608083E8
:1009A0008081816080838081806880831092C10013
:1009B00008958E3008F08E50877020913A0190E4AF
:1009C000299F90011124822B80937C0080917A00D2
:1009D000806480937A0080917A0086FDFCCF8091BC
:1009E00078002091790090E0922B0895833081F077
:1009F00028F4813099F08230A1F008958730A9F071
:100A00008830B9F08430D1F4809180008F7D03C0AC
:100A1000809180008F7780938000089584B58F77D0
:100A200002C084B58F7D84BD08958091B0008F771A
:100A300003C08091B0008F7D8093B0000895CF9364
:100A4000DF9390E0FC01E458FF4F2491FC01E05754
:100A5000FF4F8491882361F190E0880F991FFC017A
:100A6000E255FF4FC591D491FC01EC55FF4FA59184
:100A7000B491611109C09FB7F894888120958223B1
:100A80008883EC912E230BC0623061F49FB7F894F9
:100A90003881822F809583238883EC912E2B2C9391
:100AA0009FBF06C08FB7F894E8812E2B28838FBF95
:100AB000DF91CF9108951F93CF93DF93282F30E0DC
:100AC000F901E859FF4F8491F901E458FF4FD4919F
:100AD000F901E057FF4FC491CC23C1F0162F8111CB
:100AE00085DFEC2FF0E0EE0FFF1FEC55FF4FA591D7
:100AF000B4918FB7F894111105C09C91ED2FE0953A
:100B0000E92302C0EC91ED2BEC938FBFDF91CF91E5
:100B10001F910895FC01918D228D892F90E0805CBA
:100B20009F4F821B91098F7399270895FC01918D26
:100B3000828D981731F0828DE80FF11D858D90E040
:100B400008958FEF9FEF0895FC01918D828D981786
:100B500061F0828DDF01A80FB11D5D968C91928DA1
:100B60009F5F9F73928F90E008958FEF9FEF08959E
:100B7000FC01848DDF01A80FB11DA35ABF4F2C913A
:100B8000848D90E001968F739927848FA689B78909
:100B90002C93A089B1898C9180648C93938D848DE2
:100BA000981306C00288F389E02D80818F7D8083B1
:100BB0000895CF93DF93EC01888D8823C1F0EA89F3
:100BC000FB89808185FD05C0A889B9898C9186FD46
:100BD0000EC00FB607FCF5CF808185FFF2CFA88944
:100BE000B9898C9185FFEDCFCE01C2DFE8CFDF91CF
:100BF000CF910895EF92FF920F931F93CF93DF93BE
:100C0000EC0181E0888F9B8D8C8D981305C0E8895D
:100C1000F989808185FD23C0F62E0B8D10E00F5FD2
:100C20001F4F0F731127E02E8C8DE8120BC00FB6EB
:100C300007FCFACFE889F989808185FFF5CFCE01DD
:100C400097DFF2CF8B8DFE01E80FF11DE35AFF4FC6
:100C5000F0820B8FEA89FB898081806207C0EE8970
:100C6000FF896083E889F98980818064808381E0DD
:100C700090E0DF91CF911F910F91FF90EF90089539
:100C8000CF92DF92EF92FF921F93CF93DF93EC010D
:100C90006A017B01122FE889F98982E0808341157E
:100CA000514E61057105A9F060E079E08DE390E0B7
:100CB000A70196017CD4DA01C9010197A109B10904
:100CC000B695A79597958795AC01411580E1580792
:100CD000A0F0E889F989108260E874E88EE190E07C
:100CE000A701960164D4BA01A901415051096109D3
:100CF00071097695679557954795EC85FD855083E5
:100D0000EE85FF854083188EEC89FD891083EA8982
:100D1000FB89808180618083EA89FB89808188608A
:100D20008083EA89FB89808180688083EA89FB89E6
:100D300080818F7D8083DF91CF911F91FF90EF9015
:100D4000DF90CF9008951F920F920FB60F9211244B
:100D50002F938F939F93EF93FF93E0916D01F09109
:100D60006E018081E0917301F091740182FD12C0E7
:100D70009081809176018F5F8F7320917701821728
:100D800051F0E0917601F0E0E35AFE4F958F8093A9
:100D9000760101C08081FF91EF919F918F912F91FA
:100DA0000F900FBE0F901F9018951F920F920FB6C5
:100DB0000F9211242F933F934F935F936F937F93E1
:100DC0008F939F93AF93BF93EF93FF938DE591E044
:100DD000CFDEFF91EF91BF91AF919F918F917F9166
:100DE0006F915F914F913F912F910F900FBE0F9098
:100DF0001F901895EDE5F1E01382128288EE93E0E2
:100E0000A0E0B0E084839583A683B78382E491E079
:100E10009183808385EC90E09587848784EC90E0D3
:100E20009787868780EC90E0918B808B81EC90E0B7
:100E3000938B828B82EC90E0958B848B86EC90E098
:100E4000978B868B118E128E138E148E08958F922F
:100E50009F92AF92BF92CF92DF92EF92FF920F9349
:100E60001F93CF93DF937C018B016C0182E0C80E4E
:100E7000D11C4701E5E08E0E911CC0E0D0E0F601E8
:100E800061916F014AE050E0C801C5D05C016EE29B
:100E9000C80167D08A0D9B1DC80FD91FC814D9047B
:100EA00071F74AE050E0F7016581C801B4D08C0FBA
:100EB0009D1FDF91CF911F910F91FF90EF90DF90D9
:100EC000CF90BF90AF909F908F900895EAEFF1E0A0
:100ED00082E591E0918380831282138214821582CD
:100EE0000895CF92DF92EF92FF920F931F93CF93CB
:100EF000DF936C017A018B01C0E0D0E0CE15DF05F5
:100F000089F0D8016D918D01D601ED91FC91019090
:100F1000F081E02DC6010995892B11F47E0102C0F4
:100F20002196ECCFC701DF91CF911F910F91FF90D8
:100F3000EF90DF90CF9008956115710579F0FB0176
:100F400001900020E9F73197AF01461B570BDC01F8
:100F5000ED91FC910280F381E02D099480E090E016
:100F60000895DC01ED91FC910190F081E02D099450
:100F70004F925F926F927F92EF92FF920F931F9327
:100F8000CF93DF93CDB7DEB7A1970FB6F894DEBF4E
:100F90000FBECDBF7C01FA01CB0119A2223008F4AB
:100FA0002AE08E010F5D1F4F422E512C612C712CB7
:100FB000BF01A3019201FBD2F901CA01015011093D
:100FC0006A3014F4605D01C0695CD8016C93232B16
:100FD000242B252B69F7B801C701AEDFA1960FB608
:100FE000F894DEBF0FBECDBFDF91CF911F910F915F
:100FF000FF90EF907F906F905F904F900895211534
:10100000310541F4DC01ED91FC910190F081E02D7E
:10101000642F0994ADCF9A01462F50E060E070E054
:10102000EECF813039F018F0823051F008951092EF
:101030006E00089580916F008D7F80936F000895FA
:10104000809170008D7F8093700081E08093B0006C
:101050008091B100887F84608093B1001092B300CA
:101060000895CF93C82F80913B018C1307C0E8EB04
:10107000F0E0E4918FEF80933B0101C0EFEF8E2F02
:10108000D0DF60E08C2FCF9116CD1F920F920FB65C
:101090000F9211242F933F934F935F936F937F93FE
:1010A0008F939F93AF93BF93EF93FF93809103022E
:1010B00090910402A0910502B0910602892B8A2B1F
:1010C0008B2B51F180910002E0910102F09102021C
:1010D0009081892780838091030290910402A091DE
:1010E0000502B0910602181619061A061B06BCF472
:1010F0008091030290910402A0910502B091060232
:101100000197A109B1098093030290930402A0936F
:101110000502B093060203C080913B01A2DFFF915C
:10112000EF91BF91AF919F918F917F916F915F915F
:101130004F913F912F910F900FBE0F901F901895D8
:1011400040E855E260E070E080E090E000C026E01A
:101150008DE591E095CD1F920F920FB60F9211245D
:101160002F933F934F935F936F937F938F939F93AF
:10117000AF93BF93EF93FF938FE89DEF909385001C
:101180008093840032D0FF91EF91BF91AF919F91F6
:101190008F917F916F915F914F913F912F910F9020
:1011A0000FBE0F901F9018958FE89DEF90938500CC
:1011B00080938400AFE6B0E08C918E7F8C93E0E862
:1011C000F0E080818C7F8083E1E8F0E08081877EA1
:1011D000808380818460808380818C7F80838C91F8
:1011E00081608C93089581E00895CF93DF9300D0C0
:1011F000CDB7DEB780910A0291E0980F90930A0272
:10120000882349F021E030E030930D0220930C0256
:1012100080930A0239C0CE0101960E94B9007894E9
:101220000E94C100F89480910A02815080930A02C2
:101230008A81882389F08091090291E0980F909328
:101240000902882349F021E030E030930D02209319
:101250000C028093090218C0809109028823A1F032
:1012600080910B02811110C081E080930B02789471
:10127000B3D8F8948091090281508093090280913B
:101280000B02815080930B020F900F90DF91CF9152
:1012900008950F931F93CF93DF931F92CDB7DEB7BF
:1012A00081E089834BDB4CDF00913C0110913D01D3
:1012B000F8011182108232D977DF81E0F8012081B4
:1012C0003181232B09F080E0898378947894898197
:1012D0008823C1F081E0F80120813181232B09F4BA
:1012E00080E0809307029091070281E0911180E0F5
:1012F00089838981882311F076DF02C080E090E045
:101300008983E5CF50DAF89480E090E00F90DF9188
:10131000CF911F910F9108955058BB27AA270ED047
:1013200008C1F9D030F0FED020F031F49F3F11F425
:101330001EF4EEC00EF4E095E7FBE4C0E92F0AD1FD
:1013400080F3BA17620773078407950718F071F4E2
:101350009EF522C10EF4E0950B2EBA2FA02D0B01A5
:10136000B90190010C01CA01A0011124FF27591BEA
:1013700099F0593F50F4503E68F11A16F040A22FF0
:10138000232F342F4427585FF3CF46953795279561
:10139000A795F0405395C9F77EF41F16BA0B620B60
:1013A000730B840BBAF09150A1F0FF0FBB1F661FA7
:1013B000771F881FC2F70EC0BA0F621F731F841FEA
:1013C00048F4879577956795B795F7959E3F08F010
:1013D000B3CF9395880F08F09927EE0F97958795CF
:1013E00008956CD008F481E00895BCD088F09F5730
:1013F00090F0B92F9927B751A0F0D1F0660F771F61
:10140000881F991F1AF0BA95C9F712C0B13081F040
:10141000C3D0B1E00895C0C0672F782F8827B85F88
:1014200039F0B93FCCF3869577956795B395D9F7A1
:101430003EF490958095709561957F4F8F4F9F4FAB
:101440000895E89409C097FB3EF4909580957095B7
:1014500061957F4F8F4F9F4F9923A9F0F92F96E900
:10146000BB279395F695879577956795B795F11175
:10147000F8CFFAF4BB0F11F460FF1BC06F5F7F4F12
:101480008F4F9F4F16C0882311F096E911C0772324
:1014900021F09EE8872F762F05C0662371F096E82D
:1014A000862F70E060E02AF09A95660F771F881FFC
:1014B000DAF7880F9695879597F90895990F0008A0
:1014C000550FAA0BE0E8FEEF16161706E807F90716
:1014D000C0F012161306E407F50798F0621B730BB1
:1014E000840B950B39F40A2661F0232B242B252B32
:1014F00021F408950A2609F4A140A6958FEF811DD5
:10150000811D089597F99F6780E870E060E0089575
:101510009FEF80EC089500240A941616170618060B
:101520000906089500240A941216130614060506E7
:101530000895092E0394000C11F4882352F0BB0F78
:1015400040F4BF2B11F460FF04C06F5F7F4F8F4FDB
:101550009F4F089557FD9058440F551F59F05F3F16
:1015600071F04795880F97FB991F61F09F3F79F0C5
:1015700087950895121613061406551FF2CF469547
:10158000F1DF08C0161617061806991FF1CF8695C9
:101590007105610508940895E894BB2766277727AD
:1015A000CB0197F908958ADF08F48FEF0895A1E23F
:1015B0001A2EAA1BBB1BFD010DC0AA1FBB1FEE1FCD
:1015C000FF1FA217B307E407F50720F0A21BB30B18
:1015D000E40BF50B661F771F881F991F1A9469F794
:1015E00060957095809590959B01AC01BD01CF01F0
:1015F0000895EE0FFF1F0590F491E02D0994F894E3
:02160000FFCF1A
:101602000000E4028000010000000AD7233C0AD750
:10161200233C000000000000000000000000000069
:101622000000000000000000000000000040000078
:10163200803F000000000504050401FFE0020000F5
:101642000000FA0571078A05A4059605D905000070
:041652000000270766
:00000001FF
