:10000000EEC000000C94F5100C941C1110C10000FF
:100010000EC100000CC100000AC100000C9495152F
:1000200006C1000004C1000002C1000000C10000C0
:10003000FEC000000C94FB15FAC00000F8C00000E0
:100040000C944311F4C000000C94F2130C9424148B
:10005000EEC00000ECC00000EAC00000E8C00000F4
:10006000E6C00000E4C00000001EBE1F28202B20B8
:10007000021F351FBF1DE01DA31D0520F41F012019
:100080002B202B202B208E1D0000000800020100D9
:100090000003040700000000000000000102040843
:1000A00010204080010204081020010204081020E2
:1000B000040404040404040402020202020203030E
:1000C0000303030300000000250028002B000000AC
:1000D0000000240027002A0002001D3A2774694E00
:1000E00053E8F5D2CF9C81A6BBCDD0F7EAB9A48363
:1000F0009E25381F02514C6B76879ABDA0F3EEC93E
:10010000D46F7255481B06213C4A57706D3E23043C
:1001100019A2BF9885D6CBECF1130E2934677A5D0E
:1001200040FBE6C1DC8F92B5A8DEC3E4F9AAB79024
:100130008D362B0C11425F78659489AEB3E0FDDA01
:10014000C77C61465B0815322F5944637E2D3017FA
:100150000AB1AC8B96C5D8FFE2263B1C01524F6812
:1001600075CED3F4E9BAA7809DEBF6D1CC9F82A5DA
:10017000B8031E3924776A4D50A1BC9B86D5C8EFC1
:10018000F24954736E3D20071A6C71564B180522C4
:100190003F8499BEA3F0EDCAD735280F12415C7B8E
:1001A00066DDC0E7FAA9B4938EF8E5C2DF8C91B69C
:1001B000AB100D2A3764795E43B2AF8895C6DBFC7D
:1001C000E15A47607D2E3314097F6245580B163182
:1001D0002C978AADB0E3FED9C4004914B51411249C
:1001E0001FBECFEFD8E0DEBFCDBF12E0A0E0B1E090
:1001F000E8EFFCE402C005900D92A03CB107D9F7EE
:1002000024E0A0ECB2E001C01D92A63DB207E1F7E8
:1002100010E0CFEED0E004C02197FE010E94F1244F
:10022000CD3ED107C9F70E94B4210C947A26E8CEBE
:10023000CF92DF92EF92FF926B017C018EE0C816A5
:10024000D104E104F10428F48EE0C80ED11CE11CB5
:10025000F11C60E08C2D0E946C12C601FF90EF90A3
:10026000DF90CF9008950895CF93DF93EB010E9424
:10027000261299838883DF91CF9108950895CF92B4
:10028000DF92EF92FF926B017C019F7720E030E0DC
:1002900040E859E50E94B82287FF3AC020E030E0EC
:1002A00040E05FE3C701B6010E94552487FD0EC000
:1002B00020E030E040E05FE3C701B6010E94412248
:1002C000FF90EF90DF90CF900C948D2320E030E0F2
:1002D00040E05FEBC701B6010E945524181654F4A4
:1002E00020E030E0A901C701B6010E9459246B014A
:1002F0007C010EC020E030E040E05FE3C701B601C2
:100300000E944022FF90EF90DF90CF900C94A522A6
:10031000C701B601FF90EF90DF90CF9008958F92C4
:100320009F92AF92BF92CF92DF92EF92FF92C090D6
:100330009201D0909301E0909401F0909501A70173
:10034000960160918C0470918D0480918E0490913F
:100350008F040E94B822882341F0C0928C04D0926E
:100360008D04E0928E04F0928F0480918A04909123
:100370008B0484DF43E050E060E874E080918A04FD
:1003800090918B0471DFE0908004F0908104B701BC
:1003900080E090E00E94502320E030E441E454E407
:1003A0000E94BC226CDF0E94242328E1269FA0012A
:1003B000279F500D112450937F0440937E04A091F9
:1003C0009601B091970197010E94F72460937A04F7
:1003D00070937B0480937C0490937D0481E090E093
:1003E0000E94A2104091690450916A0460916B04CC
:1003F00070916C0480E090E00E949E1080907504E3
:1004000090907604A0907704B090780420E030E0DB
:1004100040E85FEBC501B4010E94B822882331F1A6
:10042000C0906904D0906A04E0906B04F0906C0472
:10043000A7019601C501B4010E9440224B015C0155
:1004400020E030E040E054E3C701B6010E945924A7
:100450009B01AC01C501B4010E945524181634F06B
:1004600082EA91E09093540480935304809179043C
:10047000882331F082EA91E09093540480935304EE
:1004800080916D0490916E04A0916F04B0917004FE
:10049000BC01CD016F5F7F4F8F4F9F4F60936D0405
:1004A00070936E0480936F04909370040E945023A5
:1004B000209171043091720440917304509174043E
:1004C0000E9459246093690470936A0480936B04BA
:1004D00090936C04FF90EF90DF90CF90BF90AF901F
:1004E0009F908F900895CF93DF93E3E5F4E087E248
:1004F000DF011D928A95E9F780E090E0A0E8BFEB6C
:1005000082A393A3A4A3B5A38FE692E1A3E8BAE3E1
:10051000868F978FA0A3B1A388E398E2AEE3B9EBEF
:1005200084839583A683B78384EC99E5A0E1BAEB35
:1005300080879187A287B3878DE79DE2ADE3B6E719
:1005400084879587A687B78781E892E2A4E6BAEF09
:10055000808B918BA28BB38BAAEDB2E0B383A28385
:10056000C4EDD2E01196DC93CE938CE592E09983B2
:1005700088839B838A839D838C8387E694E015968A
:100580009C938E93149787E594E013969C938E9397
:10059000129789E694E017969C938E93169788E0BD
:1005A000AAE7B4E0ED0119928A95E9F7C2E8D4E030
:1005B00080E5DE011D928A95E9F720EC32E084E1C6
:1005C000D9011D928A95E9F7358B248B82E190E061
:1005D000F901918380838EE691E0938382838AE49C
:1005E00091E0958384838EE191E0978386838AE00E
:1005F00091E09187808722E32E8793E39F8784E3AE
:10060000888B85E3898B86E38A8B87E38B8B88E3F2
:100610008C8B89E38D8B81E38E8B30E33F8B888FCE
:10062000898F8A8F2B8F8C8F9D8F80E994E09F8399
:100630008E838091920190919301A0919401B09149
:1006400095018A879B87AC87BD8781E090E0A0E019
:10065000B0E089839A83AB83BC8362E070E080E082
:1006600090E0E6DD9987888720E030E0A90160E02E
:1006700070E0F9DD81E08D83DF91CF910895809165
:100680008204811103C081E0809382040895EF9277
:10069000FF920F931F93CF93DF93DC01EA01F901DF
:1006A00014968D919C91159712960D911C9113970C
:1006B000080F191F2881398118964D915C9119975F
:1006C0004217530728F04D915C911197452B39F152
:1006D0007801E21AF30A18964D915C911997481B1C
:1006E000590B4E0D5F1D4617570794F1A901460F90
:1006F000571F40175107E0F0F182E08233832283D5
:100700006E197F0975836483161617061CF4382F3B
:10071000292F02C030E020E03683278313C01896CB
:100720008D919C911997821B930B8617970784F0E4
:100730007183608333832283158214821782168229
:1007400088819981680F791F7983688380E001C06F
:1007500081E0DF91CF911F910F91FF90EF9008956D
:10076000CF92DF92EF92FF92CF93DF936B017C01E8
:1007700084E48C9DE0018D9DD00D1124CA51DD4F84
:100780008AA99BA9009721F00E94C9251BAA1AAA31
:1007900084E48C9DF0018D9DF00D1124EA51FD4FF4
:1007A00086A997A9009711F00E94C92584E48C9D21
:1007B000F0018D9DF00D1124EA51FD4F138A128A2C
:1007C000168A178A108E118E128E138E148E158E25
:1007D000168E178E10A211A281E090E093A382A33F
:1007E00015A214A216A217A210A611A613A612A64D
:1007F00015A614A616A617A610AA11AA13AA12AA1D
:1008000015AA14AA17AA16AA11AE10AE12AE13AEEC
:1008100014AE15AEDF01DE961D921D921D921C9244
:100820001397EE5BFF4F11821082DF91CF91FF9003
:10083000EF90DF90CF9008950F931F93CF93DF93A6
:10084000EB01DC018D919C91FC01A681B781E881CF
:10085000F98123E0EE0FFF1F2A95E1F712962D9103
:100860003C911397E20FF31F00811181AC85BD8588
:100870009D01220F331FDC0112968D919C911397DD
:10088000D901A80FB91F8D919C9124813581232B0B
:1008900019F461E070E002C062E070E0689F9001CE
:1008A000699F300D789F300D112488859985289F88
:1008B000B001299F700D389F700D1124EC81FD81CE
:1008C0002E9FC0012F9F900D3E9F900D1124800FF1
:1008D000911FFA019183808373836283DF91CF91AB
:1008E0001F910F9108952F923F924F925F926F92B6
:1008F0007F928F929F92AF92BF92CF92DF92EF92B0
:10090000FF920F931F93CF93DF9300D000D000D0BE
:10091000CDB7DEB7DC011496ED91FC9115970190EF
:10092000F081E02D808591859A838983A281B381AE
:10093000BC83AB83FB0181909190A190B1908F011A
:10094000C12CD12C7601C814D904EA04FB040CF0A4
:100950005FC0D80114964D905D906D907C90179774
:1009600018964D915D916D917C911B97F801709651
:10097000FE83ED83F801A081B18183E0AA0FBB1F44
:100980008A95E1F7E981FA8182819381A80FB91FE5
:100990002D903C901197F80124853585220F331F47
:1009A0008B819C81280F391FF901008111811496D8
:1009B0008D919C911597892B19F481E090E002C0EC
:1009C00082E090E0809F9001819F300D909F300DDC
:1009D0001124249F8001259F100D349F100D112498
:1009E000249DC001259D900D349D900D1124A801DA
:1009F0006D817E81820D931D0E9461268D819E8175
:100A0000080F191F9FEFC91AD90AE90AF90A9BCFE3
:100A100026960FB6F894DEBF0FBECDBFDF91CF9103
:100A20001F910F91FF90EF90DF90CF90BF90AF900C
:100A30009F908F907F906F905F904F903F902F90FE
:100A40000895CF93DF93DB01A856BE4F2C9122234C
:100A500069F024E4269FF001279FF00D1124EA514C
:100A6000FD4FEF0119922A95E9F71C9224E4269F85
:100A7000F001279FF00D1124EA51FD4F14821582D9
:100A8000168217821186108613861286118A108AA2
:100A900017861686DF91CF9163CE2F923F924F92A9
:100AA0005F926F927F928F929F92AF92BF92CF92FE
:100AB000DF92EF92FF920F931F93CF93DF93CDB707
:100AC000DEB728970FB6F894DEBF0FBECDBF6B011F
:100AD0007C011A0184E48C9D90018D9D300D1124C0
:100AE0002A513D4FF90184819581A681B781892BD7
:100AF0008A2B8B2B09F4B8C0A12CB12C412C512C82
:100B0000320138872F83C90104969A838983D901DA
:100B10001896BC83AB83E981FA8180819181A2819F
:100B2000B381481659066A067B0694F5AB81BC81F1
:100B3000ED91FC91EA0DFB1D228133818901812C0D
:100B4000912C82149304C4F4D801ED91FC91309758
:100B500069F0848195812D833E830E94C925F80127
:100B6000808191810E94C9253E812D81FFEF8F1ADE
:100B70009F0A0E5F1F4FE5CFC9010E94C9258FEF65
:100B8000481A580A680A780A94E0A90EB11CC3CF23
:100B9000AF81B88518968D919C9119970E94C925AF
:100BA000EF81F88582859385892B59F1A12CB12C91
:100BB000812C912C84E48C9D80018D9D100D11243D
:100BC00000511D4F8214930484F4D801ED91FC91DF
:100BD000EA0DFB1D848195810E94C925BFEF8B1A08
:100BE0009B0AEEE0AE0EB11CEDCF84E48C9DF001CB
:100BF0008D9DF00D1124EA51FD4F828593850E9451
:100C0000C92584E48C9D90018D9D300D11248901AE
:100C10000A511D4FD80150968D919C9151970E9479
:100C2000C925F801868597850E94C925C701B601A7
:100C300097DDC701B60128960FB6F894DEBF0FBE48
:100C4000CDBFDF91CF911F910F91FF90EF90DF907B
:100C5000CF90BF90AF909F908F907F906F905F905C
:100C60004F903F902F90EDCE28960FB6F894DEBFB0
:100C70000FBECDBFDF91CF911F910F91FF90EF90ED
:100C8000DF90CF90BF90AF909F908F907F906F90AC
:100C90005F904F903F902F90089524E4269FF0019D
:100CA000279FF00D1124EA51FD4F82899389049703
:100CB000029758F485E090E0938B828B8FEF9FEF43
:100CC000DC01828F938FA48FB58F08952F923F926E
:100CD0004F925F926F927F928F929F92AF92BF924C
:100CE000CF92DF92EF92FF920F931F93CF93DF93F8
:100CF000CDB7DEB7E0970FB6F894DEBF0FBECDBF1D
:100D00009AA389A31B016A012801390184E4849D07
:100D10008001859D100D112498012A513D4F7901C4
:100D2000D9014D925D926D927C921397AB01C301F4
:100D3000B201B3DEF801E651FD4FD6014D915D9150
:100D40006D917D918D01CA014083518362837383CC
:100D500064E070E00E941A25F70191878087892B53
:100D600009F49FC11E8E1D8E198E1A8E1B8E1C8E2D
:100D7000F8A2EF8E97012C5F3F4F38A72FA32C5F6F
:100D80003F4F3AA729A7EFA1F8A580819181A281C1
:100D9000B381298D3A8D4B8D5C8D281739074A0711
:100DA0005B070CF0E7C0A9A5BAA58D919C912D8D8C
:100DB0003E8D280F391F3A8B298BD801ED91FC917C
:100DC000EE0FFF1FA9A1BAA18D919C91E80FF91F09
:100DD00080819181F90191838083D80114962D91AE
:100DE0003D914D915C9117972BA33CA34DA35EA31E
:100DF000085F1F4F62E070E0C1010E941A25E98977
:100E0000FA8993838283892B09F44BC11D8A1E8A38
:100E10001F8A188E2D893E894F89588D8BA19CA1E0
:100E2000ADA1BEA1281739074A075B070CF08FC098
:100E3000D801ED90FC90EE0CFF1CE989FA89C28084
:100E4000D380CE0CDF1C68E070E081E090E00E946F
:100E50001A25D6018D939C93E989FA898281938121
:100E6000FC01EE0DFF1DC080D180C114D10409F436
:100E700018C1F80184819581A681B781F60180832C
:100E80009183A283B383085F1F4F181619061A06B1
:100E90001B0634F01C8A1B8A812C912C54010CC037
:100EA00064E070E00E941A25D60115969C938E93FB
:100EB0001497892B79F7F5C0F60180819181A28181
:100EC000B38188169906AA06BB06A4F5F601E4804C
:100ED000F5802B893C89E20EF31EF801DE011196A4
:100EE00080E101900D928A95E1F7005F1F4FA70105
:100EF000BE016F5F7F4FA9A1BAA114968D919C91FD
:100F000015979ADCF60126813781D70112968D91CB
:100F10009C911397820F931F97838683BFEF8B1A41
:100F20009B0AAB0ABB0A2B893C892C5F3F4F3C8B49
:100F30002B8BC2CF2D893E894F89588D2F5F3F4F14
:100F40004F4F5F4F2D8B3E8B4F8B588F63CF298D2B
:100F50003A8D4B8D5C8D2F5F3F4F4F4F5F4F298FE9
:100F60003A8F4B8F5C8F2D8D3E8D2C5F3F4F3E8F88
:100F70002D8F09CF6EE070E0C1010E941A25AF8D60
:100F8000B8A11B969C938E931A97812C912CA12C1F
:100F9000B12CC12CD12C24E4249DC001259D900DA1
:100FA00011249C0120513D4F3A8B298B21E030E0E8
:100FB000A214B3040CF04DC0D8014D915D916D9118
:100FC0007D918D01E989FA89E080F180E80CF91CB6
:100FD00077FD67C0D70111963C932E9341155105BB
:100FE00061057105A9F0CA012FA738AB4BA75CA713
:100FF0006DA77EA70E943425F701958384832FA5D2
:1010000038A94BA55CA56DA57EA5892B31F449C0F7
:10101000D70115961C921E921497F70153834283B1
:101020008481958197838683918780871386128632
:1010300081E090E0452B462B472B11F480E090E0B7
:10104000C80ED91EFFEFAF1ABF0A4EE0840E911CE6
:10105000AFCF84E4849D8001859D100D11240A5139
:101060001D4FD8011D961C921E921C97C60133E09D
:10107000880F991F3A95E1F70E943425F801918B6A
:10108000808B892B71F0C601880F991F0E9434252F
:10109000D8011F969C938E931E97892B11F080E0A8
:1010A00005C0A101C301B201F8DC81E0E0960FB6F2
:1010B000F894DEBF0FBECDBFDF91CF911F910F918E
:1010C000FF90EF90DF90CF90BF90AF909F908F9068
:1010D0007F906F905F904F903F902F9008952F9248
:1010E0003F924F925F926F927F928F929F92AF92B8
:1010F000BF92CF92DF92EF92FF920F931F93CF9305
:10110000DF93CDB7DEB768970FB6F894DEBF0FBE9A
:10111000CDBF9C8B8B8BDB0149015A0124E4289DB8
:10112000C001299D900D11249C012A513D4F790148
:101130002D913C911197F701358B248BFC01E450E4
:10114000FD4F14964D915D916D917C911797408361
:10115000518362837383FC01E050FD4F18964D91DB
:101160005D916D917C911B97408351836283738362
:10117000FC01EC5FFC4F1C964D915D916D917C9153
:101180001F974083518362837383FC01EC5EFC4FA5
:1011900050965C91509751964C91519752963C9134
:1011A000529753962C9153975083418332832383D4
:1011B0008D010C5E1F4F852F942F181619060CF009
:1011C00068C0880F991F880F991F0E943425D70186
:1011D000D3969C938E93D297892B09F4BCC0212C73
:1011E000312C412C512C32019701225D3F4F3E8B17
:1011F0002D8B2C5F3F4F388F2F8B2E5F3F4F3A8BBD
:10120000298BB301A2012FEF421A520A620A720A15
:10121000ED89FE8980819181A281B38148175907A8
:101220006A077B074CF5AF89B88DCD90DC90C20C76
:10123000D31CF801DE01119680E101900D928A9590
:10124000E1F7005F1F4FA601BE016F5F7F4FEB8983
:10125000FC8984819581F0DAA989BA898D919C9164
:101260001197F60122813381820F931F8D939C93F6
:10127000F4E02F0E311CC5CFD701D4968D919C91EF
:10128000D5970E943425F70197AB86AB892B09F4DB
:1012900062C0F80180819181A281B38124E4289DFC
:1012A000F001299DF00D1124EA51FD4FAC01BD0163
:1012B0004D7F21E030E0452B462B472B11F020E0FD
:1012C00030E033A322A324E4289DF001299DF00DF2
:1012D0001124EA51FD4F0197A109B10921E030E045
:1012E0000297A105B10510F020E030E035A324A35A
:1012F00084E4889DF001899DF00D1124CF01845F65
:101300009C4FD80114964D915D916D917C911797EA
:10131000DC014D935D936D937C931397EA51FD4FE0
:10132000868D978DA0A1B1A1B7FF10C0B095A095F3
:10133000909581959F4FAF4FBF4F82AF93AFA4AFB2
:10134000B5AF168E178E10A211A20AC012AE13AE40
:1013500014AE15AE05C0C501B40102DA81E001C0CA
:1013600080E068960FB6F894DEBF0FBECDBFDF9168
:10137000CF911F910F91FF90EF90DF90CF90BF9092
:10138000AF909F908F907F906F905F904F903F9025
:101390002F900895CF92DF92EF92FF92CF93DF9339
:1013A00010926E0324E4269FF001279FF00D112474
:1013B000EA51FD4F15A614A620E030E0C12CD12C37
:1013C000DF011A96C1E0D0E0C416D506D4F4ED9141
:1013D000FC911197E20FF31FE280F3801E141F04AB
:1013E00054F4E480F580F782E682F186E086138685
:1013F0001286D183C083EFEFCE1ADE0A225F3F4F01
:10140000E3CF24E4269FF001279FF00D1124EA5139
:10141000FD4F13A612A611AE10AEDF01DE961D928F
:101420001D921D921C92139782E090E0938B828B09
:10143000DF91CF91FF90EF90DF90CF90089524E45B
:10144000269FF001279FF00D1124EA51FD4F138ACA
:10145000128A23CB24E4269FF001279FF00D11244C
:10146000EA51FD4F8289938981309105C8F085301A
:10147000910518F0059769F008958FEF9FEFDC0153
:10148000828F938FA48FB58F85E090E0938B828BB2
:1014900008958FEF9FEFDC01828F938FA48FB58F1C
:1014A000089524E4249FF001259FF00D1124EA51B2
:1014B000FD4F2EE0AC01249FC001259F900D11240B
:1014C0000284F385E02DE80FF91F81E080936E031D
:1014D00082859385918780874085518526813781D4
:1014E00081E090E04217530711F080E090E0918393
:1014F000808308952F923F924F925F926F927F92D6
:101500008F929F92AF92BF92CF92DF92EF92FF9213
:101510000F931F93CF93DF93CDB7DEB7C255D10999
:101520000FB6F894DEBF0FBECDBF21969FAF8EAF32
:1015300021974BA75CA76DA77EA74801590184E4BA
:10154000889D8001899D100D1124F801EA51FD4FFD
:101550002285338527963FAF2EAF279782899389BF
:10156000029709F060C186A597A5A0A9B1A9892B0A
:101570008A2B8B2B29F484E090E0938B828B53C1D0
:101580008489958921964EAD5FAD219748175907FB
:1015900009F049C186A997A99AAB89AB1EAE1DAEC9
:1015A00019AE1AAE1BAE1CAE8F01DF019E962996B6
:1015B000BFAFAEAF2997F2962B96FFAFEEAF2B974A
:1015C0009801285C3F4F2D963FAF2EAF2D97A80175
:1015D0004A5D5F4F2F965FAF4EAF2F97C80182963F
:1015E00061969FAF8EAF61971A976396BFAFAEAF0C
:1015F00063972996EEADFFAD299780819181A281F5
:10160000B38129AD3AAD4BAD5CAD281739074A0718
:101610005B070CF0E7C02B96EEADFFAD2B978081FA
:1016200091812DAD3EAD280F391F3EAB2DABD901B9
:1016300012960D90BC91A02D2396BFAFAEAF23970D
:10164000B695A795B695A7952596BFAFAEAF25974A
:101650002D96EEADFFAD2D9780819181892B09F4F8
:1016600096C02F96AEADBFAD2F97CD90DD90ED908B
:10167000FC9029A83AA8F9010190F081E02DF8AB7F
:10168000EFA718AE1FAA8FA998AD2596AEADBFAD36
:1016900025978A179B070CF07AC06196AEADBFAD57
:1016A00061978D919C91892B69F1EFA5F8A94080F4
:1016B000518062807380A7019601C301B2010E942C
:1016C000552487FD0BC0A7019601D1016D917D9135
:1016D0008D919C910E94B82287FD8CC0A701960134
:1016E000C301B2010E945524181664F4A7019601A3
:1016F000F10160817181828193810E94B8228823E7
:1017000009F478C06396AEADBFAD63978D919C919F
:10171000892B69F1EFA5F8A9408051806280738020
:10172000A7019601C301B2010E94B82287FF0BC036
:10173000A7019601D1016D917D918D919C910E949F
:10174000552487FF57C0A7019601C301B2010E942B
:10175000B82281110CC0A7019601F101608171814D
:10176000828193810E94552418160CF443C02FA93E
:1017700038AD2F5F3F4F38AF2FAB34E0230E311C15
:101780004FA558A94C5F5F4F58AB4FA77CCFEDA931
:10179000FEA96081718123964EAD5FAD239789A923
:1017A0009AA90E94612625968EAD9FAD2597880F38
:1017B000991F880F991F29A93AA9280F391F3AABF9
:1017C00029AB89AD9AADABADBCAD0196A11DB11DE4
:1017D00089AF9AAFABAFBCAFADADBEAD1496BEAFE7
:1017E000ADAF07CF81E090E0D801D9969C938E935E
:1017F000D89719C084E4889DF001899DF00D1124CB
:10180000EA51FD4F868D978DA0A1B1A1892B8A2B1E
:101810008B2B09F064C284E090E0938B828B86ADC1
:1018200097AD93A782A784E4889DF001899DF00D70
:101830001124EA51FD4F828993898230910571F418
:1018400082AD93ADA4ADB5AD181619061A061B06E8
:101850000CF04CC2CC24C394D12C05C0049709F0E1
:1018600045C2C12CD12C8EE02196EEADFFAD219763
:101870008E9F70018F9FF00C112427962EAD3FADE7
:101880002797E20EF31ED70112964D915C911397A4
:101890004115510509F42AC216968D919C9117970E
:1018A0009AA789A7FE01319684E1DF011D928A95EE
:1018B000E9F7898A9A8AAB8ABC8AC114D10409F4EF
:1018C00057C084E4889DF001899DF00D1124EA51F0
:1018D000FD4FDF01DE964D905D906D907C9082AD66
:1018E00093ADA4ADB5AD481659066A067B0609F05E
:1018F0003FC0F701648175810084F185E02D84810A
:101900009581A681B7819C018D8B9E8BAF8BB88F03
:10191000285F3F4F3E8B2D8BD70118968D919C9160
:101920001997280F391F19963C932E9318971896DC
:101930008D919C911997460F571F841B950B97FD0E
:1019400006C0860F971F19969C938E93189784E470
:10195000889DF001899DF00D1124EC5DFC4FB1E0F4
:101960004B1A510861087108408251826282738269
:101970009E012B5E3F4FAE01475D5F4F64E170E01B
:10198000C7010E944703082F10E00115110509F057
:1019900091C18CE090E0A0E0B0E08D839E83AF83A6
:1019A000B8879E01235E3F4FAE01475D5F4F64E005
:1019B00070E0C7010E944703082F10E001151105D0
:1019C00009F078C180E190E0A0E0B0E08D839E83D3
:1019D000AF83B8874D8D5E8DBE01655D7F4F8F8D66
:1019E00098A10E9461268BA19CA1009761F06D8D4A
:1019F0007E8DEBE2F0E0EC0FFD1F6E0F7F1F49A123
:101A00005AA10E9461261DA21EA21FA218A62196FD
:101A10002EAD3FAD2197220F331F38AF2FAB24E4FB
:101A2000289DC001299D900D11248A519D4FAC0124
:101A30004C5F5F4F5AAF49AFDC011896BEAFADAFF8
:101A40002DA13EA14FA158A529AB3AAB4BAB5CAB46
:101A5000E9ADFAAD80819181A281B3812817390760
:101A60004A075B070CF0CFC0ADADBEADED91FC9168
:101A700089A99AA9880F991F880F991FE80FF91F44
:101A8000A081B1818C91882309F4AFC0833009F41F
:101A9000ACC00280F381E02D2FA938ADE20FF31F17
:101AA0004081518158AB4FA7452B09F49EC08985D1
:101AB0009A85AB85BC850196A11DB11D89879A8742
:101AC000AB87BC879E01235E3F4FAE01475D5F4FF2
:101AD00064E070E0C7010E94470390E0009709F0BE
:101AE000E8C08D819E81AF81B8850496A11DB11D8E
:101AF0008D839E83AF83B8874D8D5E8DBE016B5DF8
:101B00007F4F8F8D98A10E9461268BA19CA1009789
:101B100061F06D8D7E8DA5E2B0E0AC0FBD1F6A0F48
:101B20007B1F49A15AA10E9461261EAA1DAA412C11
:101B3000512C3201EFA5F8A980819181A281B38156
:101B4000481659066A067B060CF04FC0EFA5F8A9A7
:101B5000248035802DA93EA9220E331ED101129674
:101B60006D917C9113979E01235E3F4FAE01475DBF
:101B70005F4FC7010E94470390E0009709F099C0AA
:101B8000F10182819381092E000CAA0BBB0B4D81C0
:101B90005E816F817885840F951FA61FB71F8D8387
:101BA0009E83AF83B887608171814D8D5E8D8F8DEF
:101BB00098A10E9461268BA19CA1009759F0D101A8
:101BC0006D917C912D8D3E8D620F731F49A15AA19D
:101BD0000E946126BFEF4B1A5B0A6B0A7B0AEDA9D4
:101BE000FEA93496FEABEDABA5CF49A85AA86BA8C9
:101BF0007CA8FFEF4F1A5F0A6F0A7F0A4DA25EA210
:101C00006FA278A61DCF89859A85AB85BC85892B67
:101C10008A2B8B2B09F44EC08AE190E0A0E0B0E063
:101C200089839A83AB83BC8321962EAD3FAD2197E8
:101C3000C901330FAA0BBB0B8D879E87AF87B88B6B
:101C40004D895E89BE016F5F7F4F8F89988D0E949D
:101C500061268B8D9C8D009761F06D897E8941E0B6
:101C600050E04C0F5D1F640F751F498D5A8D0E9407
:101C7000612689A59AA5D70117969C938E931697EE
:101C800011961C921E92CD2889F184E4889DF00162
:101C9000899DF00D1124EC5DFC4F80819181A28122
:101CA000B3810196A11DB11D80839183A283B3836B
:101CB0001DC08C01CD28D1F4012BC1F084E4889D96
:101CC000F001899DF00D1124EA51FD4F81E090E073
:101CD00095A784A785E090E0938B828B07C083E073
:101CE00090E0938B828B81E090E09BCDCE5ADF4FCA
:101CF0000FB6F894DEBF0FBECDBFDF91CF911F911D
:101D00000F91FF90EF90DF90CF90BF90AF909F909A
:101D10008F907F906F905F904F903F902F9008959D
:101D2000CF92DF92EF92FF920F931F936B017C0192
:101D300084E48C9DF0018D9DF00D1124EA51FD4F3E
:101D400082899389009709F450C00197B9F482A55C
:101D500093A59C012F5F3F4F33A722A7092E000CAC
:101D6000AA0BBB0B028D138D248D358D8017910727
:101D7000A207B307D1F5C701B6010CDB84E48C9D43
:101D8000F0018D9DF00D1124EA51FD4F8289938958
:101D9000039759F582A593A59C012F5F3F4F33A769
:101DA00022A7092E000CAA0BBB0B468D578D60A1F4
:101DB00071A184179507A607B707BCF086AD97AD4C
:101DC00093A782A784E090E0938B828B82AD93AD42
:101DD000A4ADB5AD181619061A061B0634F4EE5B51
:101DE000FF4F81E090E0918380831F910F91FF90DE
:101DF000EF90DF90CF90089524E4269FF001279F75
:101E0000F00D1124EA51FD4F828993890497B1F4B2
:101E100082A593A5019693A782A7092E000CAA0B71
:101E2000BB0B46895789608D718D84179507A6076E
:101E3000B70721F485E090E0938B828B08952F9271
:101E40003F924F925F926F927F928F929F92AF924A
:101E5000BF92CF92DF92EF92FF920F931F93CF9397
:101E6000DF93CDB7DEB72E970FB6F894DEBF0FBE67
:101E7000CDBF49835A836B837C834901442E552E01
:101E800024E4249DF001259DF00D1124EA51FD4F1D
:101E90002288338891012450310915861486223016
:101EA000310508F0DDC0DC0111961C921E921396DC
:101EB0001C921E921297A12CB12C60E070E09F0141
:101EC000265F3F4F38872F837F013CE0E30EF11CF4
:101ED000DF015096BA87A9879F01225F3F4F3C8759
:101EE0002B87681579050CF06FC0EF81F885A0810C
:101EF000B1819D012A0D3B1D3E872D87D9012D9172
:101F00003C911197232B09F059C018960D911C9103
:101F100019971296ED91FC911397FE83ED83169617
:101F20002D913C911797D7014D915C91DA01E3E037
:101F3000AA0FBB1FEA95E1F7E985FA85C080D18039
:101F4000FD01EC0DFD1D440F551FAB85BC85CD90EB
:101F5000DC904C0D5D1DDA016D937C93D7014D91A2
:101F60005C9111974F5F5F4F4D935C931383028396
:101F7000AD85BE851B963C932E931A9702171307C7
:101F800048F4201B310B3183208315821482178281
:101F9000168214C0AD85BE851496CD90DC90159741
:101FA0004D815E814C0D5D1D401B510B5183408363
:101FB0002C193D0935832483D782C6826F5F7F4FFA
:101FC000BEE0AB0EB11C8DCF24E4249D8001259D85
:101FD000100D11240A511D4FF80124853585DC01AF
:101FE00011963C932E934089518913965C934E939E
:101FF00012974685578515965C934E931497232B1D
:10200000A1F5B5E02B16310481F510926E03828D97
:10201000938DA48DB58DAE014F5F5F4F64E070E08E
:102020008F3F9F4FAF4FBF4F59F480E290E00E9427
:10203000911969817A818B819C81A40100DA15C094
:102040008FE190E00E949119D8019B961C921E92FC
:102050009A9781E090E053969C938E93529705C097
:10206000FC0111821082138212822E960FB6F89410
:10207000DEBF0FBECDBFDF91CF911F910F91FF90BB
:10208000EF90DF90CF90BF90AF909F908F907F9018
:102090006F905F904F903F902F900895EF92FF9236
:1020A0000F931F93CF93DF937C018B01EA010E9472
:1020B000141A811121C080919A0190919B0104977B
:1020C00011F183E090E090939B0180939A011BC0F3
:1020D00098819111F0CF28ED38EB45E050E060E0B9
:1020E00070E0CB010E949E1CAE01B801C7010E94A6
:1020F000AC1CC8010E94771C80916F039091700303
:10210000892B31F3D8CFDF91CF911F910F91FF90A1
:10211000EF900895CF93DF9320919A0130919B0126
:102120002430310541F0EB010E94AC1CCE01DF915F
:10213000CF910C94771CDF91CF9108950C94BC2023
:102140000C94B1200C949F200C94871C0C94432079
:10215000089560E070E080E090E00C94EF1908953D
:10216000AF92BF92CF92DF92EF92FF920F931F93A5
:10217000CF93DF9300D0CDB7DEB75C0169017A0160
:102180008B0180E090E0C114D104E104F104F1F08E
:10219000C114D10421E0E206F10410F4A60102C04A
:1021A0004FEF5FEF9E012F5F3F4FB801C5010E94C7
:1021B0005E218F3F2FEF920749F029813A81C21AA1
:1021C000D30AE108F108020F131FDDCF0F900F9023
:1021D000DF91CF911F910F91FF90EF90DF90CF9003
:1021E000BF90AF900895089508951F920F920FB673
:1021F0000F9211242F933F934F935F936F937F938D
:102200008F939F93AF93BF93EF93FF93E0919C01C4
:10221000F0919D010995FF91EF91BF91AF919F9131
:102220008F917F916F915F914F913F912F910F907F
:102230000FBE0F901F9018951F920F920FB60F921E
:1022400011242F933F934F935F936F937F938F93BB
:102250009F93AF93BF93EF93FF93E0919E01F09113
:102260009F010995FF91EF91BF91AF919F918F9140
:102270007F916F915F914F913F912F910F900FBE82
:102280000F901F9018951F920F920FB60F92112466
:102290002F933F938F939F93AF93BF93809172033C
:1022A00090917303A0917403B09175033091710301
:1022B00023E0230F2D3720F40196A11DB11D05C089
:1022C00026E8230F0296A11DB11D20937103809370
:1022D000720390937303A0937403B093750380917A
:1022E000760390917703A0917803B09179030196DA
:1022F000A11DB11D8093760390937703A09378037B
:10230000B0937903BF91AF919F918F913F912F919E
:102310000F900FBE0F901F9018953FB7F8948091C3
:10232000760390917703A0917803B091790326B555
:10233000A89B05C02F3F19F00196A11DB11D3FBFFD
:10234000BA2FA92F982F8827820F911DA11DB11D8B
:10235000BC01CD0142E0660F771F881F991F4A9587
:10236000D1F708958F929F92AF92BF92CF92DF9252
:10237000EF92FF926B017C01D0DF4B015C01C11435
:10238000D104E104F104F1F02EDFC7DFDC01CB0161
:1023900088199909AA09BB09883E9340A105B1058E
:1023A00070F321E0C21AD108E108F10888EE880E26
:1023B00083E0981EA11CB11CC114D104E104F104F6
:1023C00021F7DDCFFF90EF90DF90CF90BF90AF90DF
:1023D0009F908F900895789484B5826084BD84B571
:1023E000816084BD85B5826085BD85B5816085BD10
:1023F000EEE6F0E0808181608083E1E8F0E0108229
:10240000808182608083808181608083E0E8F0E069
:10241000808181608083E1EBF0E080818460808353
:10242000E0EBF0E0808181608083EAE7F0E080818A
:1024300084608083808182608083808181608083EA
:102440008081806880831092C10008958E3008F0EA
:102450008E5087702091A00190E4299F9001112453
:10246000822B80937C0080917A00806480937A0034
:1024700080917A0086FDFCCF8091780020917900D0
:1024800090E0922B0895833081F028F4813099F008
:102490008230A1F008958730A9F08830B9F08430F7
:1024A000D1F4809180008F7D03C0809180008F7770
:1024B00080938000089584B58F7702C084B58F7DA6
:1024C00084BD08958091B0008F7703C08091B000E3
:1024D0008F7D8093B0000895CF93DF9390E0FC014F
:1024E000E456FF4F2491FC01E055FF4F849188236F
:1024F00061F190E0880F991FFC01E253FF4FC591F5
:10250000D491FC01EC53FF4FA591B491611109C026
:102510009FB7F8948881209582238883EC912E239D
:102520000BC0623061F49FB7F8943881822F809598
:1025300083238883EC912E2B2C939FBF06C08FB7EB
:10254000F894E8812E2B28838FBFDF91CF910895D7
:102550001F93CF93DF93282F30E0F901E857FF4F07
:102560008491F901E456FF4FD491F901E055FF4FF2
:10257000C491CC23C1F0162F811185DFEC2FF0E040
:10258000EE0FFF1FEC53FF4FA591B4918FB7F89456
:10259000111105C09C91ED2FE095E92302C0EC914B
:1025A000ED2BEC938FBFDF91CF911F910895FC012C
:1025B000918D228D892F90E0805C9F4F821B910925
:1025C0008F7399270895FC01918D828D981731F0B2
:1025D000828DE80FF11D858D90E008958FEF9FEFBC
:1025E0000895FC01918D828D981761F0828DDF0135
:1025F000A80FB11D5D968C91928D9F5F9F73928FF6
:1026000090E008958FEF9FEF0895FC01848DDF0126
:10261000A80FB11DA35ABF4F2C91848D90E0019655
:102620008F739927848FA689B7892C93A089B18944
:102630008C9180648C93938D848D981306C002884E
:10264000F389E02D80818F7D80830895CF93DF9380
:10265000EC01888D8823C1F0EA89FB89808185FDA2
:1026600005C0A889B9898C9186FD0EC00FB607FCFC
:10267000F5CF808185FFF2CFA889B9898C9185FF3C
:10268000EDCFCE01C2DFE8CFDF91CF910895EF9279
:10269000FF920F931F93CF93DF93EC0181E0888F1C
:1026A0009B8D8C8D981305C0E889F989808185FD03
:1026B00023C0F62E0B8D10E00F5F1F4F0F731127F5
:1026C000E02E8C8DE8120BC00FB607FCFACFE8891C
:1026D000F989808185FFF5CFCE0197DFF2CF8B8D11
:1026E000FE01E80FF11DE35AFF4FF0820B8FEA89DC
:1026F000FB898081806207C0EE89FF896083E88959
:10270000F98980818064808381E090E0DF91CF91BE
:102710001F910F91FF90EF900895CF92DF92EF926B
:10272000FF921F93CF93DF93EC016A017B01122F7D
:10273000E889F98982E080834115514E6105710570
:10274000B1F060E079E08DE390E0A70196010E948E
:10275000CF24DA01C9010197A109B109B695A7955E
:1027600097958795AC01411580E15807A8F0E88955
:10277000F989108260E874E88EE190E0A701960183
:102780000E94CF24BA01A901415051096109710980
:102790007695679557954795EC85FD855083EE8531
:1027A000FF854083188EEC89FD891083EA89FB89B7
:1027B000808180618083EA89FB8980818860808351
:1027C000EA89FB89808180688083EA89FB8980812E
:1027D0008F7D8083DF91CF911F91FF90EF90DF90ED
:1027E000CF9008951F920F920FB60F9211242F933E
:1027F0008F939F93EF93FF93E0918A03F0918B0364
:102800008081E0919003F091910382FD12C090814C
:10281000809193038F5F8F7320919403821751F0FF
:10282000E0919303F0E0E658FC4F958F809393037B
:1028300001C08081FF91EF919F918F912F910F9017
:102840000FBE0F901F9018951F920F920FB60F9208
:1028500011242F933F934F935F936F937F938F93A5
:102860009F93AF93BF93EF93FF938AE793E0CDDEFF
:10287000FF91EF91BF91AF919F918F917F916F9158
:102880005F914F913F912F910F900FBE0F901F902E
:102890001895EAE7F3E01382128288EE93E0A0E055
:1028A000B0E084839583A683B78383E692E0918327
:1028B000808385EC90E09587848784EC90E097870F
:1028C000868780EC90E0918B808B81EC90E0938BFD
:1028D000828B82EC90E0958B848B86EC90E0978BDA
:1028E000868B118E128E138E148E08958F929F9266
:1028F000AF92BF92CF92DF92EF92FF920F931F930E
:10290000CF93DF937C018B016C0182E0C80ED11C58
:102910004701E5E08E0E911CC0E0D0E0F601619128
:102920006F014AE050E0C801C6D05C016EE2C80108
:1029300067D08A0D9B1DC80FD91FC814D90471F721
:102940004AE050E0F7016581C801B5D08C0F9D1FAA
:10295000DF91CF911F910F91FF90EF90DF90CF907B
:10296000BF90AF909F908F900895E7E1F4E083E7E8
:1029700092E09183808312821382148215820895DB
:10298000CF92DF92EF92FF920F931F93CF93DF933B
:102990006C017A018B01C0E0D0E0CE15DF0589F033
:1029A000D8016D918D01D601ED91FC910190F081DE
:1029B000E02DC6010995892B11F47E0102C02196F4
:1029C000ECCFC701DF91CF911F910F91FF90EF9056
:1029D000DF90CF9008956115710579F0FB010190AA
:1029E0000020E9F73197AF01461B570BDC01ED9151
:1029F000FC910280F381E02D099480E090E008953D
:102A0000DC01ED91FC910190F081E02D09944F9251
:102A10005F926F927F92EF92FF920F931F93CF93EB
:102A2000DF93CDB7DEB7A1970FB6F894DEBF0FBE28
:102A3000CDBF7C01FA01CB0119A2223008F42AE0B3
:102A40008E010F5D1F4F422E512C612C712CBF0146
:102A5000A30192010E94CF24F901CA01015011097A
:102A60006A3014F4605D01C0695CD8016C93232B5B
:102A7000242B252B61F7B801C701ADDFA1960FB656
:102A8000F894DEBF0FBECDBFDF91CF911F910F91A4
:102A9000FF90EF907F906F905F904F900895211579
:102AA000310541F4DC01ED91FC910190F081E02DC4
:102AB000642F0994ACCF9A01462F50E060E070E09B
:102AC000EECF813039F018F0823051F00895109235
:102AD0006E00089580916F008D7F80936F00089540
:102AE000809170008D7F8093700081E08093B000B2
:102AF0008091B100887F84608093B1001092B30010
:102B00000895CF93C82F8091A1018C1307C0E8EDE1
:102B1000F0E0E4918FEF8093A10101C0EFEF8E2FE1
:102B2000D0DF60E08C2FCF9113CD1F920F920FB6A4
:102B30000F9211242F933F934F935F936F937F9343
:102B40008F939F93AF93BF93EF93FF938091200454
:102B500090912104A0912204B0912304892B8A2B07
:102B60008B2B51F180911D04E0911E04F0911F0404
:102B70009081892780838091200490912104A091E5
:102B80002204B0912304181619061A061B06BCF479
:102B90008091200490912104A0912204B0912304FB
:102BA0000197A109B1098093200490932104A09377
:102BB0002204B093230403C08091A101A2DFFF91FE
:102BC000EF91BF91AF919F918F917F916F915F91A5
:102BD0004F913F912F910F900FBE0F901F9018951E
:102BE00040E855E260E070E080E090E000C026E060
:102BF0008AE793E092CD1F920F920FB60F921124A5
:102C00002F933F934F935F936F937F938F939F93F4
:102C1000AF93BF93EF93FF9386E09FEF9093850070
:102C2000809384000E949821FF91EF91BF91AF9112
:102C30009F918F917F916F915F914F913F912F91D4
:102C40000F900FBE0F901F90189586E09FEF909306
:102C5000850080938400AFE6B0E08C918E7F8C93EA
:102C6000E0E8F0E080818C7F8083E1E8F0E0808123
:102C7000877E808380818360808380818B7F808357
:102C80008C9181608C930895EFE6F0E080818E7FD7
:102C90008083089581E008956F927F928F929F9232
:102CA000AF92BF92CF92DF92EF92FF920F931F935A
:102CB000CF93DF935C017B014A0101E010E00E1528
:102CC0001F0564F568018FEFC81AD80AE801CC0F18
:102CD000DD1FC80DD91D6880798061147104E1F091
:102CE00065E772E0C3010E947126892B19F41982ED
:102CF000188212C068E772E0C3010E947126892B16
:102D000059F4CE14DF0441F06801E2E0CE0ED11C8C
:102D1000198218821B821A828601D1CF81E0F501C7
:102D20008083B401C7010E94E920F5019283818369
:102D300080E090E0DF91CF911F910F91FF90EF9095
:102D4000DF90CF90BF90AF909F908F907F906F90CB
:102D5000089584E294E0089580E008950F931F930E
:102D6000CF93DF938B01BA01E90119821882980190
:102D7000012E000C440B550BFC0181819281F0D98E
:102D8000019621F01983088380E001C081E0DF9182
:102D9000CF911F910F9108950F931F93CF93DF93BE
:102DA00000D0CDB7DEB7FB018A01B9019E012F5FCC
:102DB0003F4FAF01FC01818192810E940021019669
:102DC00039F089819A81F8019183808380E001C084
:102DD00081E00F900F90DF91CF911F910F91089597
:102DE000FC01808108950895089581E0FB018083AE
:102DF00080E00895089510924E040895FC018181A9
:102E000092810C94DE20CF93DF93CDB7DEB72A9763
:102E10000FB6F894DEBF0FBECDBFAC01CB0160E0B2
:102E200070E049835A836B837C83092E000CAA0BC4
:102E3000BB0B8D839E83AF83B8879E01275F3F4F77
:102E4000AE014F5F5F4F68E070E080913D0490916C
:102E50003E0484DF811108C081E029853A8528304D
:102E6000310519F480E001C081E02A960FB6F8948C
:102E7000DEBF0FBECDBFDF91CF9108950F931F939B
:102E8000CF93DF9300D0CDB7DEB78B019E012F5FCC
:102E90003F4FAC0180913D0490913E045FDF811172
:102EA00008C081E029813A812017310719F480E0B8
:102EB00001C081E00F900F90DF91CF911F910F9192
:102EC0000895CF93DF93EC011092410410924004D7
:102ED00010924D0410924C04AC0160E070E0CB0104
:102EE0000E941F0AAE0161E070E080E090E00E9465
:102EF0001F0A80913D0490913E04DF91CF917ACFDB
:102F00004F925F926F927F928F929F92AF92BF92F9
:102F1000CF92DF92EF92FF920F931F93CF93DF93A5
:102F200000D0CDB7DEB79C016C0197FF03C087E0EE
:102F3000C80ED11C43E0D594C7944A95E1F7C90166
:102F400068E070E00E94BC247C0189010E5F1F4F85
:102F500080913B0490913C04801791070CF0DCC0F9
:102F60008091390490913A04009731F00E94C9256C
:102F700010923C0410923B04C8010E9434259093A7
:102F80003A0480933904892B29F010933C04009370
:102F90003B04C2C0A12CB12CAC14BD040CF05EC02B
:102FA000412C512C320100E010E098012E5B3B4F88
:102FB000AE014F5F5F4F61E070E080913D04909102
:102FC0003E04EADE811198C189819A812FEF421A6D
:102FD000520A620A720A20E942162FE5520621E0DF
:102FE000620671043CF060914C0470914D048DEECA
:102FF00090E02DC0080F191F0A30110551F549E066
:1030000050E060E070E082E494E00E948A216091E8
:103010004C0470914D048823C1F080914A0490E0E3
:103020006817790709F0B8CF8EEE90E0ECDE80915A
:103030004C0490914D040196992790934D048093F0
:103040004C048FEFA81AB80AA7CF8FEE90E0DBDE12
:10305000A7CF0A3011050CF4A8CF9ECFEF2809F4B2
:103060004BC1C12CD12C760100E010E098012E5B01
:103070003B4FAE014F5F5F4F61E070E080913D04D8
:1030800090913E0489DE811137C189819A812FEFA9
:10309000C21AD20AE20AF20A20E9C2162FE5D206C3
:1030A00021E0E206F1043CF060914C0470914D0483
:1030B0008DEE90E02AC0080F191F0A30110539F56E
:1030C00049E050E060E070E082E494E00E948A21F0
:1030D00060914C0470914D048823A9F080914A04BA
:1030E00090E06817790709F007C18EEE90E08BDE5B
:1030F00080914C0490914D040196992790934D0432
:1031000080934C04F9C08FEE90E07DDEAACF0A30A8
:1031100011050CF4ABCFF0C000E010E00C151D055C
:103120000CF077C0412C512C3201A12CB12C48015C
:1031300093E0880C991C9A95E1F72091390430911D
:103140003A04C4018A0D9B1D280F391FAE014F5F41
:103150005F4F61E070E080913D0490913E041CDE81
:103160008111CAC089819A812FEF421A520A620ADC
:10317000720A20E942162FE5520621E06206710428
:103180003CF060914C0470914D048DEE90E034C0A1
:10319000A80EB91E8AE0A816B104A9F549E050E0CE
:1031A000B4018091390490913A040E948A2160917F
:1031B0004C0470914D048823E9F08091390490917A
:1031C0003A04FC01E80DF91D808590E06817790745
:1031D00009F0A4CF8EEE90E016DE80914C04909121
:1031E0004D040196992790934D0480934C040F5FF2
:1031F0001F4F94CF8FEE90E006DE412C512C320110
:10320000A12CB12C9ACF2AE0A216B1040CF495CFD0
:1032100085CFE114F10409F46AC0680183E0CC0CA5
:10322000DD1C8A95E1F7812C912C540100E010E01F
:1032300098012E5B3B4FAE014F5F5F4F61E070E046
:1032400080913D0490913E04A7DD811155C0898194
:103250009A812FEF821A920AA20AB20A20E98216F4
:103260002FE5920621E0A206B1043CF060914C04E7
:1032700070914D048DEE90E034C0080F191F0A3094
:10328000110589F549E050E060E070E082E494E0E7
:103290000E948A2160914C0470914D048823F9F0BA
:1032A00080914A0490E06817790709F58EEE90E066
:1032B000AADD8091390490913A04A70162E474E098
:1032C0008C0D9D1D0E94612680914C0490914D04AF
:1032D0000196992790934D0480934C0408C08FEE7B
:1032E00090E091DDA0CF0A3011050CF4A1CF8091C0
:1032F000390490913A0402C080E090E00F900F9062
:10330000DF91CF911F910F91FF90EF90DF90CF90C1
:10331000BF90AF909F908F907F906F905F904F90F5
:103320000895CF92DF92EF92FF920F931F93CF9366
:10333000DF931F92CDB7DEB76C017B018A01452B6D
:1033400031F0AB0160E070E0C801E0D78983B701DC
:10335000C60159DD81110DC00115110551F0B701EC
:10336000C8018CDD811105C061E070E0CE010196DD
:1033700085DD0F90DF91CF911F910F91FF90EF901E
:10338000DF90CF900895CF92DF92EF92FF92CF938C
:10339000DF93CDB7DEB728970FB6F894DEBF0FBE28
:1033A000CDBF6B01E12CF12CC982DA82EB82FC8269
:1033B0002D833E834F835887AE014F5F5F4F68E098
:1033C00070E0AFDF28960FB6F894DEBF0FBECDBF1A
:1033D000DF91CF91FF90EF90DF90CF9008950F9302
:1033E0001F93CF93DF93EC018B01B3DC90933E04EA
:1033F00080933D04009739F0A801BE014DDCEC013B
:10340000892B19F40BC0C4E8D2E080913D0490915F
:103410003E04E9DC10923E0410923D04CE01DF919F
:10342000CF911F910F91089580913D0490913E049A
:10343000D7CC2F923F924F925F926F927F928F9252
:103440009F92AF92BF92CF92DF92EF92FF920F9333
:103450001F93CF93DF93CDB7DEB769970FB6F8947C
:10346000DEBF0FBECDBF20914104222309F426C246
:103470005D8B4C8B688B798B8A8B9B8B9A01AB0114
:10348000BC01CE0101960E941F0F10E038E0232EF0
:10349000312C89819A81181619060CF00AC21F86F0
:1034A0001E861D861C8689819A81AC85BD85A817DC
:1034B000B9070CF0F3C1EB81FC812E853F85E20F4B
:1034C000F31F2081318130933804209337048481A5
:1034D00095819093360480933504428153815093B3
:1034E000340440933304468157815093320440930F
:1034F0003104820F931F9C01990F440B550B2E8BA7
:103500003F8B488F598FC12CD12C76012E893F8952
:10351000488D598DC216D306E406F50608F0A2C1FF
:103520001F8260913704709138048B01072E000CC4
:10353000220B330BD701C6010496A11DB11D8017C4
:103540009107A207B30728F4E0913304F091340403
:103550000AC0E4E0F0E0E61BF70BEC0DFD1D8091E6
:10356000310490913204E80FF91F4080512C612CF6
:10357000712CD701C6010596A11DB11D80179107B9
:10358000A207B30728F4E0913304F09134040AC091
:10359000E5E0F0E0E61BF70BEC0DFD1D809131043A
:1035A00090913204E80FF91F8081582AD701C60193
:1035B0000696A11DB11D80179107A207B30728F435
:1035C000E0913304F09134040AC0E6E0F0E0E61B39
:1035D000F70BEC0DFD1D8091310490913204E80F42
:1035E000F91F8081682AD701C6010796A11DB11D68
:1035F00080179107A207B30728F4E0913304F091F4
:1036000034040AC0E7E0F0E0E61BF70BEC0DFD1D0B
:103610008091310490913204E80FF91F8081782A5B
:103620004601570148E0840E911CA11CB11C0815ED
:1036300019052A053B0508F4B4C0C016D106E206F8
:10364000F30638F480913304909134048C0D9D1D61
:1036500009C0C601861B970B2091310430913204BA
:10366000820F931F68E070E009DCE0913704F0916D
:1036700038049F010F2E000C440B550BD301C201DF
:10368000880D991DAA1DBB1D281739074A075B071E
:10369000C8F082169306A406B50638F420913304C8
:1036A00030913404C601089609C0C1018E1B9F0BDE
:1036B0008C0D9D1D2091310430913204820F931F97
:1036C000B20199C08601BF01685071096C197D096A
:1036D00082169306A406B50638F42091330430917F
:1036E0003404C601089609C0C1018E1B9F0B8C0DC6
:1036F0009D1D2091310430913204820F931FBEDB57
:103700008091370490913804B101681B790B600FE8
:10371000711F640D751D8091310490913204AEDBF0
:103720008091370490913804AC0148505109FA0156
:10373000E01BF10BAC01092E000C660B770B841615
:103740009506A606B70638F4209133043091340468
:10375000C60108960AC09101281B390BC9018C0DBE
:103760009D1D2091310430913204820F931FAF01CF
:1037700060E070E0CBD58F8320913704309138041E
:10378000A101421B530B9A01200F311F240D351D3F
:1037900040E050E0682F8091310490913204A2D52E
:1037A00050C0C016D106E206F306C8F46C197D09B4
:1037B00080913304909134048C0D9D1D5FDB8091CA
:1037C000370490913804B101681B790B6C0D7D1D95
:1037D000640D751D80913104909132040CC0C601B6
:1037E000861B970B2091310430913204B201685F3F
:1037F0007F4F820F931F42DB8091370490913804F2
:10380000AC01092E000C660B770B84169506A606F4
:10381000B70638F42091330430913404C601089679
:103820000AC0D101A81BB90BCD018C0D9D1D2091A3
:10383000310430913204820F931FA20160E070E0E6
:1038400065D58F8361E070E0CE01079617DB182FF6
:10385000B8E04B0E511C611C711CC40CD51CE61C3D
:10386000F71C54CE8C859D85880F991FED81FE81B4
:10387000E80FF91F488959896A897B89808191817C
:103880000E94510A4C855D854F5F5F4F5D874C8775
:103890008E859F8508969F878E8705CE2C893D89CA
:1038A000488959896A897B89CE0101960E941F0F38
:1038B000F0CD112319F08C899D8903DB69960FB631
:1038C000F894DEBF0FBECDBFDF91CF911F910F9156
:1038D000FF90EF90DF90CF90BF90AF909F908F9030
:1038E0007F906F905F904F903F902F900895CF936F
:1038F000DF93EC01AC0160E070E0CB019ADDAE013A
:1039000061E070E080E090E0DF91CF9192CDCF93C5
:1039100080913D0490913E041FDAC82F81110BC0A5
:1039200060E070E0CB010E94210561E070E080E082
:1039300090E00E9421058C2FCF9108950F931F9343
:1039400089019A01AB01BC0180913D0490913E0434
:103950004BDA1F910F9108953F924F925F926F92B1
:103960007F928F929F92AF92BF92CF92DF92EF920F
:10397000FF920F931F93CF93DF93CDB7DEB7679777
:103980000FB6F894DEBF0FBECDBF6C017B015A01AC
:1039900080914104882331F080914104882309F407
:1039A0005AC30AC061E474E080913D0490913E04E2
:1039B0001CDA811150C3F0CF809140041A82198221
:1039C000882309F46AC0E0E94E2EEFE55E2E6624F6
:1039D0006394712C00E010E09801295D3B4FAE012B
:1039E0004F5F5F4F61E070E080913D0490913E0435
:1039F000D3D9982E81114DC089819A81080F191F42
:103A00000115110509F445C081E0481A5108610803
:103A1000710839F460914C0470914D048DEE90E082
:103A200030C00A30110589F549E050E060E070E0EF
:103A300087E294E06FD460914C0470914D04882328
:103A4000F1F080912F0490E068177907D9F48EEE99
:103A500090E0D9D988E0E7E2F4E0DE011996019020
:103A60000D928A95E1F720914C0430914D042F5F1F
:103A70003F4F332730934D0420934C040AC08FEE00
:103A800090E0C1D91A82198204C00A3011050CF4E1
:103A9000A3CF81E029813A8124C000E010E078E0E2
:103AA000672E712C29E030E02C0F3D1F200F311FB5
:103AB000AE014F5F5F4FB301601B710B80913D04FE
:103AC00090913E0469D9982E29813A81811108C0CC
:103AD000020F131F0115110519F00830110514F319
:103AE00081E0121613060CF080E09110B1C2882319
:103AF00009F4B1C280914004811104C019861A866C
:103B00001B861C8689859A85AB85BC85803191058D
:103B100008F0A1C2FC01EC5CFF4F63C7D60116960A
:103B2000ED91FC91179780819181A281B381898366
:103B30009A83AB83BC83AE014F5F5F4F64E070E05C
:103B400085E190E07DC18D859E85DAD9009731F4BD
:103B50002FEF3FEFA90161E070E00EC0FC01808013
:103B60009180A280B380A701C501B4010E94CA0957
:103B7000A501940160E070E08DE190E067C28D8561
:103B80009E85BED9009721F42FEF3FEFA90110C009
:103B9000DC018D909D90AD90BD90AD0195018401AB
:103BA000B701C6010E946606A5019401882319F099
:103BB00061E070E002C060E070E08BE190E046C23E
:103BC0008D859E859DD9009721F42FEF3FEFA901A8
:103BD0000FC0FC0181909190A190B190BF01A5010F
:103BE0009401C6010E946F08A5019401882319F071
:103BF00061E070E002C060E070E08CE190E026C21D
:103C0000D6011496ED91FC91159700811181F80170
:103C100082809380A080B18060E1462E512C612C7F
:103C2000712C49825A826B827C8288E090E0A0E00D
:103C3000B0E08D839E83AF83B8879E012F5E3F4F98
:103C4000AE014F5F5F4F68E070E080913D0490915E
:103C50003E0484D8882319F000E010E0BAC08989B6
:103C60009A890897C9F7D801ED90FC90B8E0EB0E5F
:103C7000F11CEE0CFF1CEE0CFF1CC701F5D68C01ED
:103C8000892B51F349825A826B827C82C7010F2CA7
:103C9000000CAA0BBB0B8D839E83AF83B8879E015C
:103CA0002F5E3F4FAE014F5F5F4F68E070E0809145
:103CB0003D0490913E0452D881118BC089899A8924
:103CC000089709F086C0D6011296ED91FC911397E2
:103CD0004081518162817381D8014D935D936D93D1
:103CE0007C931397448155816681778114964D9317
:103CF0005D936D937C93179740855185628573859D
:103D000018964D935D936D937C931B978485958551
:103D1000A685B785F80184879587A687B787108A17
:103D2000118A128A138A84E090E0A0E0B0E0848BCC
:103D3000958BA68BB78B80919A0190919B01A0E007
:103D4000B0E0808F918FA28FB38FC5010B2C000C38
:103D5000AA0BBB0B848F958FA68FB78FF401D80168
:103D6000909680E090E08A159B0554F44191519122
:103D700060E070E04D935D936D937D930196F3CF7A
:103D80009E012F5E3F4FA801B70180913D049091A5
:103D90003E040E94AE1681111CC089899A898E1535
:103DA0009F05B9F4A70160E070E0C801AFD28B8B2A
:103DB0009E012F5E3F4FAE014D5E5F4F61E070E0B0
:103DC00080913D0490913E040E94AE1681E0809364
:103DD0004004C80167960FB6F894DEBF0FBECDBF92
:103DE000DF91CF911F910F91FF90EF90DF90CF90D7
:103DF000BF90AF909F908F907F906F905F904F900B
:103E00003F90C7C68D859E85AF85B8890097A1056F
:103E1000B10521F481E080933F041DC171D8009762
:103E200089F481E090E0A0E0B0E089839A83AB83DD
:103E3000BC83AE014F5F5F4F64E070E082E190E0D1
:103E400070DA09C1BC01C6010E94730419821A828A
:103E50001B821C82AE014F5F5F4F64E070E082E125
:103E600090E05FDA8111F7C0D5CFD6011496ED91BD
:103E7000FC9115970190F081E02D008511858FEF61
:103E800089830115110509F472C0D8016D907C90E9
:103E9000A280B38020E030E060E070E080E090E05D
:103EA000861597050CF5F801A281B381A20FB31F07
:103EB0001296ED91FC911397EE0FFF1FEA0DFB1D7B
:103EC0000190F081E02D16960D90BC91A02DEA9FF7
:103ED000A001EB9F500DFA9F500D1124640F751F28
:103EE0000196285F3F4FDCCF83E190E00E940317EB
:103EF0008111B1C0C12CD12CE12CF12CE614F704B6
:103F00007CF5D8011296ED91FC911397EC0DFD1DF7
:103F100080809180A281B381AA0FBB1FAA0DBB1D17
:103F20002D913C9186819781289F2001299F500CDB
:103F3000389F500C1124B201C4010E943E17382E44
:103F4000920140E050E06981C401CCD18983B8E09E
:103F5000CB0ED11C31107FC0EFEFEE1AFE0ACECF90
:103F600061E070E0CE0101960E943E1774C060E0EF
:103F700070E083E190E00E9403176DC040E050E0E4
:103F800060E070E081E190E0CCD9811164C0812CC7
:103F9000912C5401C501B4010E944D0680916E031D
:103FA000882321F0A701C501B40143DAA701C501A7
:103FB000B4010E944D058A9489288A288B2829F00B
:103FC000812C912C54018394E5CF109241041092DE
:103FD000400410924D0410924C0480913D04909145
:103FE0003E040E94FB1637C081E090E0909370037E
:103FF00080936F0340E050E060E070E086E190E085
:104000001FCF81E0D5018C9326C08D859E850E94AF
:104010008017009731F42FEF3FEFA90161E070E0C6
:1040200013C0FC012081318142815381CA01B90151
:104030002C8B3D8B4E8B5F8B0E942A0A2C893D89ED
:104040004E895F8960E070E08EE190E09CD903C00A
:10405000C7010E94611767960FB6F894DEBF0FBEC6
:10406000CDBFDF91CF911F910F91FF90EF90DF9027
:10407000CF90BF90AF909F908F907F906F905F9008
:104080004F903F900895CF92DF92EF92FF92CF939F
:10409000DF93EC01C12CD12C7601C701B6010E943F
:1040A0004D06AE01C701B601C4D9AE01C701B601C4
:1040B0000E944D058091390490913A04009729F0AF
:1040C00068D510923A0410923904CA94CD28CE28AB
:1040D000CF2829F0C12CD12C7601C394DECF80915A
:1040E0004004882359F040E050E060E070E084E153
:1040F00090E017D9F82E1092400401C0F12C809165
:104100004104882341F01092410481E090E09093B3
:104110009B0180939A0180913D0490913E040E94FE
:10412000FE1680913D0490913E040E94F3168F2D5F
:10413000DF91CF91FF90EF90DF90CF900895CF93D4
:10414000DF93EC01AC0160E070E0CB010E94900EC7
:10415000AE0161E070E080E090E0DF91CF910C94DF
:10416000900E60E070E0CB010E94FC0E61E070E018
:1041700080E090E00C94FC0ECF92DF92EF92FF92E1
:104180000F931F93CF93DF93EC016A017B0100E053
:1041900010E098010E947A0A01E010E020E030E08F
:1041A000B701A601CE010E947A0ADF91CF911F913B
:1041B0000F91FF90EF90DF90CF9008950E944416EA
:1041C00068EE73E080E090E00E94B21180E090E041
:1041D000089526E040E050E16EE070E08AE793E069
:1041E0000E948D138AE793E00E94D712892B29F051
:1041F0008AE793E00E94F112F5CF80E090E0089505
:10420000AF92BF92CF92DF92EF92FF920F931F93E4
:10421000CF93DF9300D0CDB7DEB77A018901F901E2
:10422000118210828AE793E069837A830E94D71211
:1042300069817A81892B99F15B01DD24D39485E62C
:10424000C82E80914E04811124C08AE793E00E9419
:10425000F11285369105A9F7D0924E04F501C1926D
:104260005F01F80180819181019691838083E9CF7C
:104270008AE793E00E94F1128F3FFFEF9F0749F01A
:10428000F50181935F01F80180819181019691830D
:104290008083F801808191818E159F0548F380E02D
:1042A00090E00F900F90DF91CF911F910F91FF90B1
:1042B000EF90DF90CF90BF90AF9008950F931F9332
:1042C000CF93DF93EA0189018AE793E00E94C0144B
:1042D000F801D183C08380E090E0DF91CF911F91FE
:1042E0000F910895DC01A40FB51F240F351FAD01F8
:1042F000481B590B4217530738F4ED91E627F0E0BD
:10430000E752FF4F6491F3CF862F08959A01AB01D6
:104310006FEFE8CFCF93FC01E60FF71FE40FF51F17
:10432000C081F4DF91E0C81390E0892FCF91089508
:104330008091500491E0980F90935004882349F0A5
:1043400021E030E0309352042093510480935004D4
:10435000089578940E948F01F894809150048150C0
:10436000809350040C94A010FF920F931F93CF934F
:10437000DF9300D0CDB7DEB7FF24F394FA820E941A
:10438000EB110E94F01500915D0210915E02F801A0
:104390001182108260E070E080E090E00E94A9103D
:1043A0000E9473027894C80182960E94A81081E04E
:1043B00090E00E94A4101982AE014F5F5F4F61E050
:1043C00070E0F801828193810E944E1089818823D8
:1043D00011F0F801F6A20E94AF10F8940E94251681
:1043E000F80180819181892B19F481E096A19111C6
:1043F00080E08A8378947894FF24F3948A818823D8
:1044000071F11982AE014F5F5F4F61E070E0F8011A
:10441000828193810E948A108981882311F0F8019A
:10442000F6A2F80180819181892B31F481E096A177
:10443000911103C080E001C081E080934F0490910E
:104440004F0481E0911180E08A838A81882319F0EA
:104450000E944A1602C080E090E08A83CFCF0E947B
:104460003F0381E090E00E94A610F89480E090E085
:104470000F900F90DF91CF911F910F91FF900895B2
:104480005058BB27AA270ED0BFC1B0D130F0B5D14C
:1044900020F031F49F3F11F41EF4A5C10EF4E09515
:1044A000E7FB72C1E92FC1D180F3BA176207730726
:1044B0008407950718F071F49EF5F0C10EF4E095AD
:1044C0000B2EBA2FA02D0B01B90190010C01CA01CE
:1044D000A0011124FF27591B99F0593F50F4503E79
:1044E00068F11A16F040A22F232F342F4427585F6B
:1044F000F3CF469537952795A795F0405395C9F783
:104500007EF41F16BA0B620B730B840BBAF091503A
:10451000A1F0FF0FBB1F661F771F881FC2F70EC0D9
:10452000BA0F621F731F841F48F4879577956795AC
:10453000B795F7959E3F08F0B3CF9395880F08F095
:104540009927EE0F97958795089591D180F09F3721
:1045500040F491110EF4A3C160E070E080E89FE3A5
:10456000089526F01B16611D711D811D13C12DC1FB
:10457000E7D008F481E008950CD046C13ED140F068
:1045800035D130F021F45F3F19F0FEC0511187C1E1
:104590002AC14BD198F39923C9F35523B1F3951B45
:1045A000550BBB27AA2762177307840738F09F5F54
:1045B0005F4F220F331F441FAA1FA9F333D00E2EC3
:1045C0003AF0E0E830D091505040E695001CCAF730
:1045D00029D0FE2F27D0660F771F881FBB1F2617F5
:1045E00037074807AB07B0E809F0BB0B802DBF01C8
:1045F000FF2793585F4F2AF09E3F510568F0C4C0D3
:104600004EC15F3FECF3983EDCF386957795679556
:10461000B795F7959F5FC9F7880F911D9695879578
:1046200097F90895E1E0660F771F881FBB1F621797
:1046300073078407BA0720F0621B730B840BBA0B55
:10464000EE1F88F7E0950895F8D088F09F5790F016
:10465000B92F9927B751A0F0D1F0660F771F881FA7
:10466000991F1AF0BA95C9F712C0B13081F016D16E
:10467000B1E0089513C1672F782F8827B85F39F00C
:10468000B93FCCF3869577956795B395D9F73EF406
:1046900090958095709561957F4F8F4F9F4F0895AE
:1046A000E89409C097FB3EF49095809570956195CC
:1046B0007F4F8F4F9F4F9923A9F0F92F96E9BB2782
:1046C0009395F695879577956795B795F111F8CFFE
:1046D000FAF4BB0F11F460FF1BC06F5F7F4F8F4F69
:1046E0009F4F16C0882311F096E911C0772321F05F
:1046F0009EE8872F762F05C0662371F096E8862FF7
:1047000070E060E02AF09A95660F771F881FDAF74D
:10471000880F9695879597F90895A9D080F09F37CF
:1047200040F491110EF0BBC060E070E080E89FEBB8
:10473000089526F41B16611D711D811D2BC045C0F7
:10474000990F0008550FAA0BE0E8FEEF16161706A2
:10475000E807F907C0F012161306E407F50798F00A
:10476000621B730B840B950B39F40A2661F0232B23
:10477000242B252B21F408950A2609F4A140A6959F
:104780008FEF811D811D089597F99F6780E870E084
:1047900060E00895882371F4772321F09850872BE7
:1047A000762F07C0662311F499270DC09051862BF0
:1047B00070E060E02AF09A95660F771F881FDAF79D
:1047C000880F9695879597F908959F3F31F09150FE
:1047D00020F4879577956795B795880F911D9695E5
:1047E000879597F908959FEF80EC089500240A9427
:1047F0001616170618060906089500240A941216BC
:104800001306140605060895092E0394000C11F4EE
:10481000882352F0BB0F40F4BF2B11F460FF04C09B
:104820006F5F7F4F8F4F9F4F089557FD9058440FF4
:10483000551F59F05F3F71F04795880F97FB991FFF
:1048400061F09F3F79F087950895121613061406BC
:10485000551FF2CF4695F1DF08C016161706180649
:10486000991FF1CF86957105610508940895E5DFDC
:10487000A0F0BEE7B91788F4BB279F3860F416167E
:10488000B11D672F782F8827985FF7CF869577958A
:104890006795B11D93959639C8F30895E894BB27A1
:1048A00066277727CB0197F908954ADF08F48FEF41
:1048B00008950BD0A9CF9ADF28F09FDF18F0952339
:1048C00009F062CF90CF1124EACFAFDFA0F3959F1C
:1048D000D1F3950F50E0551F629FF001729FBB27E7
:1048E000F00DB11D639FAA27F00DB11DAA1F649F93
:1048F0006627B00DA11D661F829F2227B00DA11D46
:10490000621F739FB00DA11D621F839FA00D611DCB
:10491000221F749F3327A00D611D231F849F600DEC
:10492000211D822F762F6A2F11249F5750408AF025
:10493000E1F088234AF0EE0FFF1FBB1F661F771FB1
:10494000881F91505040A9F79E3F510570F01CCF31
:10495000A6CF5F3FECF3983EDCF38695779567959D
:10496000B795F795E7959F5FC1F7FE2B880F911DCF
:104970009695879597F9089597FB072E16F400945E
:1049800006D077FD08D042D007FC05D03EF49095C4
:1049900081959F4F0895709561957F4F0895A1E28D
:1049A0001A2EAA1BBB1BFD010DC0AA1FBB1FEE1FA9
:1049B000FF1FA217B307E407F50720F0A21BB30BF4
:1049C000E40BF50B661F771F881F991F1A9469F770
:1049D00060957095809590959B01AC01BD01CF01CC
:1049E0000895EE0FFF1F0590F491E02D0994A29F0A
:1049F000B001B39FC001A39F700D811D1124911DB3
:104A0000B29F700D811D1124911D0895AA1BBB1B1F
:104A100051E107C0AA1FBB1FA617B70710F0A61BBE
:104A2000B70B881F991F5A95A9F780959095BC01DF
:104A3000CD0108950F931F93CF93DF93869F80013D
:104A4000879F100D969F100D1124C8010DD0EC0109
:104A5000009721F0A80160E070E03CD1CE01DF9129
:104A6000CF911F910F910895CF93DF9382309105DD
:104A700010F482E090E0E091D404F091D50420E0BD
:104A800030E0C0E0D0E0309711F14081518148170B
:104A90005907C0F04817590761F482819381209724
:104AA00019F09B838A832BC09093D5048093D40400
:104AB00026C02115310519F04217530718F49A0141
:104AC000BE01DF01EF010280F381E02DDCCF211573
:104AD000310509F1281B390B2430310590F4129669
:104AE0008D919C9113976115710521F0FB019383C2
:104AF000828304C09093D5048093D404FD01329640
:104B000044C0FD01E20FF31F8193919322503109BC
:104B10002D933C933AC02091D2043091D304232B9F
:104B200041F420910201309103013093D30420938A
:104B3000D20420910001309101012115310541F489
:104B40002DB73EB74091040150910501241B350B50
:104B5000E091D204F091D304E217F307A0F42E1BE6
:104B60003F0B2817390778F0AC014E5F5F4F2417D1
:104B7000350748F04E0F5F1F5093D3044093D20483
:104B80008193919302C0E0E0F0E0CF01DF91CF91FB
:104B900008950F931F93CF93DF93009709F48CC070
:104BA000FC013297138212820091D4041091D50433
:104BB0000115110581F420813181820F931F20910D
:104BC000D2043091D3042817390779F5F093D30430
:104BD000E093D20471C0D80140E050E0AE17BF07A7
:104BE00050F412962D913C911397AD01211531058A
:104BF00009F1D901F3CF9D01DA013383228360816A
:104C00007181860F971F8217930769F4EC01288141
:104C10003981260F371F2E5F3F4F318320838A81D2
:104C20009B8193838283452B29F4F093D504E093F1
:104C3000D40442C01396FC93EE931297ED01499170
:104C400059919E01240F351FE217F30771F48081FB
:104C50009181840F951F029611969C938E93828169
:104C6000938113969C938E931297E0E0F0E0D80125
:104C700012968D919C911397009719F0F8018C0171
:104C8000F6CF8D919C9198012E5F3F4F820F931F1D
:104C90002091D2043091D3042817390769F4309752
:104CA00029F41092D5041092D40402C01382128207
:104CB0001093D3040093D204DF91CF911F910F91F1
:104CC0000895FB01DC0102C001900D92415050405B
:104CD000D8F70895DC0101C06D9341505040E0F7D2
:104CE0000895FB01DC018D91019080190110D9F329
:084CF000990B0895F894FFCF21
:104CF8000000D60480000100000002000E019201AD
:104D080000000000010096010E00000001000500EF
:104D180022017A040F00000001007E040500000053
:104D2800020082041000000001009004110000003D
:104D38000400D0040B0000000100B601BD01C7014A
:104D4800C601CF01CE01D801D701E001EA01560220
:104D5800F501FF010802CE01D7011C023C02040044
:104D68000400010001000200020004000400010028
:104D780004000200020004000800020004000E0003
:104D880010006F12833A58FE01010100F410F4106C
:104D980001FF53696D756C6174696F6E2066696E89
:104DA8006973686564007265616C5F54007265615F
:104DB8006C33325F540075696E74385F54007569DE
:104DC8006E7431365F540075696E7433325F540007
:104DD800626F6F6C65616E5F540066636E5F6361DE
:104DE8006C6C5F5400706F696E7465725F5400611B
:104DF8006374696F6E5F540074696D65725F75697D
:104E08006E7433325F706169725F5400636F6465FA
:104E1800727461726765745F61726475696E6F62DE
:104E28006173655F696E7465725F5400655F636F77
:104E38006465727461726765745F61726475696EC6
:104E48006F626173655F696E745F5400015304009B
:104E58000000004713C014D712F112E31226130002
:104E680000000076142D77002D69676E6F72652D2E
:104E780061726700436F756C64206E6F7420637293
:104E8800656174652065787465726E616C206D6FFC
:104E98006465207573657220646174612E20204FEB
:104EA8007574206F66206D656D6F72792E0A00002B
:00000001FF
