:10000000EEC000000C9478130C949F1310C10000F4
:100010000EC100000CC100000AC100000C941818A9
:1000200006C1000004C1000002C1000000C10000C0
:10003000FEC000000C947E18FAC00000F8C000005A
:100040000C94C613F4C000000C9475160C94A716FB
:10005000EEC00000ECC00000EAC00000E8C00000F4
:10006000E6C00000E4C0000083204122AB22AE22A3
:100070008521B821422063202620882277228422ED
:10008000AE22AE22AE2211200000000800020100C4
:100090000003040700000000000000000102040843
:1000A00010204080010204081020010204081020E2
:1000B000040404040404040402020202020203030E
:1000C0000303030300000000250028002B000000AC
:1000D0000000240027002A0002001D3A2774694E00
:1000E00053E8F5D2CF9C81A6BBCDD0F7EAB9A48363
:1000F0009E25381F02514C6B76879ABDA0F3EEC93E
:10010000D46F7255481B06213C4A57706D3E23043C
:1001100019A2BF9885D6CBECF1130E2934677A5D0E
:1001200040FBE6C1DC8F92B5A8DEC3E4F9AAB79024
:100130008D362B0C11425F78659489AEB3E0FDDA01
:10014000C77C61465B0815322F5944637E2D3017FA
:100150000AB1AC8B96C5D8FFE2263B1C01524F6812
:1001600075CED3F4E9BAA7809DEBF6D1CC9F82A5DA
:10017000B8031E3924776A4D50A1BC9B86D5C8EFC1
:10018000F24954736E3D20071A6C71564B180522C4
:100190003F8499BEA3F0EDCAD735280F12415C7B8E
:1001A00066DDC0E7FAA9B4938EF8E5C2DF8C91B69C
:1001B000AB100D2A3764795E43B2AF8895C6DBFC7D
:1001C000E15A47607D2E3314097F6245580B163182
:1001D0002C978AADB0E3FED9C400CC163817112491
:1001E0001FBECFEFD8E0DEBFCDBF13E0A0E0B1E08F
:1001F000EAEBF0E502C005900D92A230B107D9F705
:1002000025E0A2E0B3E001C01D92AF3AB207E1F7EA
:1002100010E0CFEED0E004C02197FE010E94E1265D
:10022000CD3ED107C9F70E9472240C945B28E8CE1A
:10023000CF92DF92EF92FF926B017C018EE0C816A5
:10024000D104E104F10428F48EE0C80ED11CE11CB5
:10025000F11C60E08C2D0E94EF14C601FF90EF901E
:10026000DF90CF9008950895CF93DF93EB010E9424
:10027000A91499838883DF91CF9108950895662307
:1002800011F061E001C060E00C94EF14662311F0FE
:1002900061E001C060E00C942B15FC0191E08091BD
:1002A000A505811190E0918308958F929F92AF925E
:1002B000BF92CF92DF92EF92FF920F931F93CF9353
:1002C000DF938091A5058F5F823318F48093A50595
:1002D00002C01092A505C0909201D0909301E090C9
:1002E0009401F0909501A70196016091B20470917C
:1002F000B3048091B4049091B5040E9463258823CF
:1003000041F0C092B204D092B304E092B404F092EF
:10031000B5048091B0049091B104B0DF43E050E0A7
:1003200064EA74E08091B0049091B1049DDF209163
:10033000A4043091A504213283E0380790F42935D4
:1003400082E0380788F4213981E0380788F481E0B9
:10035000293C310508F480E0082FD82F182FC82F2A
:100360000BC0D1E010E002C0D1E011E0C0E003C05A
:10037000D1E011E0C1E000E0C0909A01D0909B0173
:10038000E0909C01F0909D01A70196016091E80426
:100390007091E9048091EA049091EB040E94632536
:1003A000882341F0C092E804D092E904E092EA0484
:1003B000F092EB04602F82E069DFC0909E01D09044
:1003C0009F01E090A001F090A101A701960160912A
:1003D000DE047091DF048091E0049091E1040E94BA
:1003E0006325882341F0C092DE04D092DF04E092BE
:1003F000E004F092E1046C2F83E048DFC090A2019A
:10040000D090A301E090A401F090A501A70196016E
:100410006091D4047091D5048091D6049091D70452
:100420000E946325882341F0C092D404D092D50461
:10043000E092D604F092D704612F84E027DFC090C9
:10044000A601D090A701E090A801F090A901A70112
:1004500096016091CA047091CB048091CC04909174
:10046000CD040E946325882341F0C092CA04D09233
:10047000CB04E092CC04F092CD046D2F85E006DF32
:10048000C0908E01D0908F01E0909001F09091018A
:10049000A70196016091C0047091C1048091C204CB
:1004A0009091C3040E946325882341F0C092C00448
:1004B000D092C104E092C204F092C3048091BE04C1
:1004C0009091BF04DBDE43E050E066EA74E0809187
:1004D000BE049091BF04C8DE82E090E00E94251324
:1004E00040919405509195056091960570919705FE
:1004F00080E090E00E9421138090A6059090A705CF
:10050000A090A805B090A90520E030E040E85FEB9E
:10051000C501B4010E946325882331F1C090940580
:10052000D0909505E0909605F0909705A70196016B
:10053000C501B4010E94FE244B015C0120E030E0C3
:1005400040E054E3C701B6010E9449269B01AC017B
:10055000C501B4010E944526181634F084EC91E0E0
:1005600090937F0580937E058091AA05882331F0C2
:1005700084EC91E090937F0580937E0580919805AF
:1005800090919905A0919A05B0919B05BC01CD0170
:100590006F5F7F4F8F4F9F4F6093980570939905C2
:1005A00080939A0590939B050E94932520919C052A
:1005B00030919D0540919E0550919F050E944926CE
:1005C0006093940570939505809396059093970595
:1005D000DF91CF911F910F91FF90EF90DF90CF901F
:1005E000BF90AF909F908F9008954F925F926F92BF
:1005F0007F928F929F92AF92BF92CF92DF92EF92B3
:10060000FF9280907A0590907B05A0907C05B09039
:100610007D05C501B4010E9495252B013C01209167
:10062000B2013091B3014091B4015091B5010E94E3
:10063000632587FF0BC0B7FC09C0C090AA01D0900A
:10064000AB01E090AC01F090AD0103C0C12CD12C06
:10065000760120E030E040E85FE36091AE01709108
:10066000AF018091B0019091B1010E94FE249B01E5
:10067000AC01C301B2010E94452687FD09C010925A
:100680007A0510927B0510927C0510927D050DC0B5
:100690008FEF881A980AA80AB80A80927A05909271
:1006A0007B05A0927C05B0927D058090960190908C
:1006B0009701A0909801B0909901A50194016091D3
:1006C000F2047091F3048091F4049091F5040E9477
:1006D0006325882341F08092F2049092F304A09263
:1006E000F404B092F50420E030E040E853E4C701A0
:1006F000B6010E94632587FF0EC020E030E0A9010B
:10070000C701B6010E94452687FD07C0C701B60193
:100710000E94672503C06FEF01C060E086E0B6DD90
:100720006091A0057091A1058091A2059091A3050B
:100730000E94932520E030E040E05FE30E944926DC
:10074000AB01BC0181E090E00E9421138091A005E3
:100750009091A105A091A205B091A3050196A11DBC
:10076000B11D8093A0059093A105A093A205B0931D
:10077000A305FF90EF90DF90CF90BF90AF909F9038
:100780008F907F906F905F904F9008952F923F923F
:100790004F925F926F927F928F929F92AF92BF9291
:1007A000CF92DF92EF92FF920F931F93CF93DF933D
:1007B000AEE7B5E08DE2FD0111928A95E9F740E0E0
:1007C00050E060E87FEB98964D935D936D937C933A
:1007D0009B974AE057ED63E27CE35E964D935D9311
:1007E0006D937C9391974DEE53E16FEE76EA1496FC
:1007F0004D935D936D937C93179749E058E16EE0BC
:1008000072E518964D935D936D937C931B974FEA19
:1008100053E46CE078E91C964D935D936D937C9363
:100820001F9746EC54E16FEF73EC50964D935D9338
:100830006D937C935397C8E2D3E01396DC93CE93E9
:100840001297E6E1F3E0F983E8838EE992E0918381
:100850008083938382839583848397838683918720
:100860008087938782879587848797878687918BF0
:10087000808B82E995E09D838C8382E895E09B8361
:100880008A8384E995E09F838E831092A40410925A
:10089000A5041092A6041092A704C8EAD4E086ED3D
:1008A000FE0111928A95E9F722E033E084E1F90133
:1008B00011928A95E9F755963C932E93549781E1CE
:1008C00090E0F901918380838CE691E093838283A9
:1008D0008AE491E09583848386E191E0978386831F
:1008E0008AE091E091878087E6EFF4E082E3882E4A
:1008F000808293E3992E9092F70424E3222E209293
:10090000F80435E3332E3092F90446E3442E409246
:10091000FA0457E3552E5092FB0468E3662E60926A
:10092000FC0479E3772E7092FD0411E31093FE042A
:1009300080E38093FF04109300051093010510934A
:100940000205809203051093040590920505FF832C
:10095000EE83EEE8AE2EE1E0BE2EF50184819581B6
:10096000A681B7818A879B87AC87BD87C12CD12C94
:100970007601C394C982DA82EB82FC8262E070E085
:1009800080E090E055DC9987888720E030E0A9017D
:1009900060E070E068DC01E00D831AAEF50184854B
:1009A0009585A685B7858093E8049093E904A09384
:1009B000EA04B093EB041092E704CBAEDCAEEDAEEC
:1009C000FEAE61E082E05BDC0093E70418AAF5016B
:1009D00080899189A289B3898EAB9FABA8AFB9AF4B
:1009E0001DAAC9AADAAAEBAAFCAA61E083E047DC47
:1009F0000DAB1EA2F50184899589A689B7898CA7BC
:100A00009DA7AEA7BFA71BA6CFA2D8A6E9A6FAA608
:100A100061E084E034DC0BA71C8EF501808D918DA4
:100A2000A28DB38D8AA39BA3ACA3BDA319A2CD8E27
:100A3000DE8EEF8EF8A261E085E021DC09A31E8640
:100A4000E6E3F5E0808290923705209238053092F7
:100A5000390540923A0550923B0560923C057092F0
:100A60003D0510933E0580E380933F0510934005BC
:100A7000109341051093420580924305109344055D
:100A800090924505FD8BEC8BF50180819181A281CF
:100A9000B381888F998FAA8FBB8F1B8ACF86D88A04
:100AA000E98AFA8A60E070E0CB01C2DB9F8B8E8B13
:100AB00020E030E0A90160E070E0D5DB0B8B109204
:100AC0007A0510927B0510927C0510927D0510929C
:100AD000EC04F50180859185A285B3858093F204AD
:100AE0009093F304A093F404B093F504C1EFD4E021
:100AF0001882C092ED04D092EE04E092EF04F092DE
:100B0000F00461E086E0BBDB0883DF91CF911F91A9
:100B10000F91FF90EF90DF90CF90BF90AF909F909C
:100B20008F907F906F905F904F903F902F9008959F
:100B30008091A804811103C081E08093A804809172
:100B4000E204811103C081E08093E2048091D80423
:100B5000811103C081E08093D8048091CE0481117B
:100B600003C081E08093CE048091C404811103C04E
:100B700081E08093C4048091B604811103C081E0B8
:100B80008093B6048091EC04811103C081E08093CE
:100B9000EC040895EF92FF920F931F93CF93DF938E
:100BA000DC01EA01F90114968D919C91159712963A
:100BB0000D911C911397080F191F288139811896E0
:100BC0004D915C9119974217530728F04D915C9114
:100BD0001197452B39F17801E21AF30A18964D91D5
:100BE0005C911997481B590B4E0D5F1D461757070F
:100BF00094F1A901460F571F40175107E0F0F18209
:100C0000E082338322836E197F097583648316160D
:100C100017061CF4382F292F02C030E020E036835D
:100C2000278313C018968D919C911997821B930B63
:100C30008617970784F0718360833383228315823C
:100C400014821782168288819981680F791F7983AF
:100C5000688380E001C081E0DF91CF911F910F9107
:100C6000FF90EF900895CF92DF92EF92FF92CF9393
:100C7000DF936B017C0184E48C9DE0018D9DD00DA0
:100C80001124CC5CDC4F8AA99BA9009721F00E941B
:100C9000AA271BAA1AAA84E48C9DF0018D9DF00D51
:100CA0001124EC5CFC4F86A997A9009711F00E94D3
:100CB000AA2784E48C9DF0018D9DF00D1124EC5C3D
:100CC000FC4F138A128A168A178A108E118E128E82
:100CD000138E148E158E168E178E10A211A281E01F
:100CE00090E093A382A315A214A216A217A210A6A5
:100CF00011A613A612A615A614A616A617A610AA24
:100D000011AA13AA12AA15AA14AA17AA16AA11AEF2
:100D100010AE12AE13AE14AE15AEDF01DE961D920C
:100D20001D921D921C921397EE5BFF4F1182108251
:100D3000DF91CF91FF90EF90DF90CF9008950F93C8
:100D40001F93CF93DF93EB01DC018D919C91FC010C
:100D5000A681B781E881F98123E0EE0FFF1F2A9574
:100D6000E1F712962D913C911397E20FF31F00814A
:100D70001181AC85BD859D01220F331FDC011296C8
:100D80008D919C911397D901A80FB91F8D919C91BA
:100D900024813581232B19F461E070E002C062E008
:100DA00070E0689F9001699F300D789F300D11248D
:100DB00088859985289FB001299F700D389F700DF7
:100DC0001124EC81FD812E9FC0012F9F900D3E9F2D
:100DD000900D1124800F911FFA01918380837383FA
:100DE0006283DF91CF911F910F9108952F923F92CF
:100DF0004F925F926F927F928F929F92AF92BF922B
:100E0000CF92DF92EF92FF920F931F93CF93DF93D6
:100E100000D000D000D0CDB7DEB7DC011496ED9144
:100E2000FC9115970190F081E02D808591859A8342
:100E30008983A281B381BC83AB83FB0181909190B4
:100E4000A190B1908F01C12CD12C7601C814D90486
:100E5000EA04FB040CF05FC0D80114964D905D903D
:100E60006D907C90179718964D915D916D917C9146
:100E70001B97F8017096FE83ED83F801A081B18184
:100E800083E0AA0FBB1F8A95E1F7E981FA8182818D
:100E90009381A80FB91F2D903C901197F8012485DC
:100EA0003585220F331F8B819C81280F391FF90153
:100EB0000081118114968D919C911597892B19F4BD
:100EC00081E090E002C082E090E0809F9001819FED
:100ED000300D909F300D1124249F8001259F100D0F
:100EE000349F100D1124249DC001259D900D349D2B
:100EF000900D1124A8016D817E81820D931D0E94A9
:100F000042288D819E81080F191F9FEFC91AD90AA7
:100F1000E90AF90A9BCF26960FB6F894DEBF0FBEFA
:100F2000CDBFDF91CF911F910F91FF90EF90DF9098
:100F3000CF90BF90AF909F908F907F906F905F9079
:100F40004F903F902F900895CF93DF93DB01A654ED
:100F5000BE4F2C91222369F024E4269FF001279FA5
:100F6000F00D1124EC5CFC4FEF0119922A95E9F782
:100F70001C9224E4269FF001279FF00D1124EC5CC5
:100F8000FC4F1482158216821782118610861386F2
:100F90001286118A108A17861686DF91CF9163CE4A
:100FA0002F923F924F925F926F927F928F929F9279
:100FB000AF92BF92CF92DF92EF92FF920F931F9367
:100FC000CF93DF93CDB7DEB728970FB6F894DEBF87
:100FD0000FBECDBF6B017C011A0184E48C9D900192
:100FE0008D9D300D11242C5C3C4FF901848195813D
:100FF000A681B781892B8A2B8B2B09F4B8C0A12C31
:10100000B12C412C512C320138872F83C901049611
:101010009A838983D9011896BC83AB83E981FA81CD
:1010200080819181A281B381481659066A067B06A8
:1010300094F5AB81BC81ED91FC91EA0DFB1D228101
:1010400033818901812C912C82149304C4F4D8013A
:10105000ED91FC91309769F0848195812D833E83D9
:101060000E94AA27F801808191810E94AA273E81CF
:101070002D81FFEF8F1A9F0A0E5F1F4FE5CFC90129
:101080000E94AA278FEF481A580A680A780A94E043
:10109000A90EB11CC3CFAF81B88518968D919C91D4
:1010A00019970E94AA27EF81F88582859385892B5D
:1010B00059F1A12CB12C812C912C84E48C9D8001C0
:1010C0008D9D100D1124025C1C4F8214930484F436
:1010D000D801ED91FC91EA0DFB1D848195810E9460
:1010E000AA27BFEF8B1A9B0AEEE0AE0EB11CEDCF24
:1010F00084E48C9DF0018D9DF00D1124EC5CFC4F7F
:10110000828593850E94AA2784E48C9D90018D9D01
:10111000300D112489010C5C1C4FD80150968D9123
:101120009C9151970E94AA27F801868597850E9475
:10113000AA27C701B60197DDC701B60128960FB6E9
:10114000F894DEBF0FBECDBFDF91CF911F910F91FD
:10115000FF90EF90DF90CF90BF90AF909F908F90D7
:101160007F906F905F904F903F902F90EDCE28969C
:101170000FB6F894DEBF0FBECDBFDF91CF911F91A8
:101180000F91FF90EF90DF90CF90BF90AF909F9026
:101190008F907F906F905F904F903F902F90089529
:1011A00024E4269FF001279FF00D1124EC5CFC4FF6
:1011B000828993890497029758F485E090E0938B95
:1011C000828B8FEF9FEFDC01828F938FA48FB58F7F
:1011D00008952F923F924F925F926F927F928F92DB
:1011E0009F92AF92BF92CF92DF92EF92FF920F93B6
:1011F0001F93CF93DF93CDB7DEB7E0970FB6F89488
:10120000DEBF0FBECDBF9AA389A31B016A012801CF
:10121000390184E4849D8001859D100D112498017D
:101220002C5C3C4F7901D9014D925D926D927C927C
:101230001397AB01C301B201B3DEF801E85CFC4FC8
:10124000D6014D915D916D917D918D01CA014083D3
:1012500051836283738364E070E00E94FB26F70190
:1012600091878087892B09F49FC11E8E1D8E198E50
:101270001A8E1B8E1C8EF8A2EF8E97012C5F3F4FAB
:1012800038A72FA32C5F3F4F3AA729A7EFA1F8A5B6
:1012900080819181A281B381298D3A8D4B8D5C8DA6
:1012A000281739074A075B070CF0E7C0A9A5BAA5BC
:1012B0008D919C912D8D3E8D280F391F3A8B298B56
:1012C000D801ED91FC91EE0FFF1FA9A1BAA18D915C
:1012D0009C91E80FF91F80819181F90191838083AE
:1012E000D80114962D913D914D915C9117972BA3A8
:1012F0003CA34DA35EA3085F1F4F62E070E0C101F5
:101300000E94FB26E989FA8993838283892B09F459
:101310004BC11D8A1E8A1F8A188E2D893E894F89CE
:10132000588D8BA19CA1ADA1BEA1281739074A07F2
:101330005B070CF08FC0D801ED90FC90EE0CFF1C09
:10134000E989FA89C280D380CE0CDF1C68E070E0A6
:1013500081E090E00E94FB26D6018D939C93E98961
:10136000FA8982819381FC01EE0DFF1DC080D1803E
:10137000C114D10409F418C1F80184819581A681B2
:10138000B781F60180839183A283B383085F1F4FE7
:10139000181619061A061B0634F01C8A1B8A812CA3
:1013A000912C54010CC064E070E00E94FB26D60131
:1013B00015969C938E931497892B79F7F5C0F601B7
:1013C00080819181A281B38188169906AA06BB0605
:1013D000A4F5F601E480F5802B893C89E20EF31E2A
:1013E000F801DE01119680E101900D928A95E1F7F6
:1013F000005F1F4FA701BE016F5F7F4FA9A1BAA178
:1014000014968D919C9115979ADCF601268137816F
:10141000D70112968D919C911397820F931F9783FA
:101420008683BFEF8B1A9B0AAB0ABB0A2B893C89C8
:101430002C5F3F4F3C8B2B8BC2CF2D893E894F8930
:10144000588D2F5F3F4F4F4F5F4F2D8B3E8B4F8BF4
:10145000588F63CF298D3A8D4B8D5C8D2F5F3F4F19
:101460004F4F5F4F298F3A8F4B8F5C8F2D8D3E8D65
:101470002C5F3F4F3E8F2D8F09CF6EE070E0C10192
:101480000E94FB26AF8DB8A11B969C938E931A9752
:10149000812C912CA12CB12CC12CD12C24E4249D85
:1014A000C001259D900D11249C01225C3C4F3A8B7C
:1014B000298B21E030E0A214B3040CF04DC0D80118
:1014C0004D915D916D917D918D01E989FA89E08061
:1014D000F180E80CF91C77FD67C0D70111963C93A9
:1014E0002E934115510561057105A9F0CA012FA779
:1014F00038AB4BA75CA76DA77EA70E941527F70105
:10150000958384832FA538A94BA55CA56DA57EA5E1
:10151000892B31F449C0D70115961C921E9214975D
:10152000F7015383428384819581978386839187D2
:1015300080871386128681E090E0452B462B472B4F
:1015400011F480E090E0C80ED91EFFEFAF1ABF0A79
:101550004EE0840E911CAFCF84E4849D8001859D74
:10156000100D11240C5C1C4FD8011D961C921E926C
:101570001C97C60133E0880F991F3A95E1F70E9446
:101580001527F801918B808B892B71F0C601880F8C
:10159000991F0E941527D8011F969C938E931E9722
:1015A000892B11F080E005C0A101C301B201F8DC74
:1015B00081E0E0960FB6F894DEBF0FBECDBFDF919D
:1015C000CF911F910F91FF90EF90DF90CF90BF9040
:1015D000AF909F908F907F906F905F904F903F90D3
:1015E0002F9008952F923F924F925F926F927F9229
:1015F0008F929F92AF92BF92CF92DF92EF92FF9223
:101600000F931F93CF93DF93CDB7DEB768970FB6D5
:10161000F894DEBF0FBECDBF9C8B8B8BDB014901E5
:101620005A0124E4289DC001299D900D11249C019C
:101630002C5C3C4F79012D913C911197F701358B32
:10164000248BFC01E65BFC4F14964D915D916D91EE
:101650007C9117974083518362837383FC01E25B23
:10166000FC4F18964D915D916D917C911B97408335
:10167000518362837383FC01EE5AFC4F1C964D919B
:101680005D916D917C911F97408351836283738339
:10169000FC01EE59FC4F50965C91509751964C913D
:1016A000519752963C91529753962C915397508351
:1016B0004183328323838D010C5E1F4F852F942F2E
:1016C000181619060CF068C0880F991F880F991F0B
:1016D0000E941527D701D3969C938E93D297892B7E
:1016E00009F4BCC0212C312C412C512C3201970122
:1016F000225D3F4F3E8B2D8B2C5F3F4F388F2F8BC2
:101700002E5F3F4F3A8B298BB301A2012FEF421A74
:10171000520A620A720AED89FE8980819181A28152
:10172000B381481759076A077B074CF5AF89B88D15
:10173000CD90DC90C20CD31CF801DE01119680E143
:1017400001900D928A95E1F7005F1F4FA601BE013F
:101750006F5F7F4FEB89FC8984819581F0DAA989DD
:10176000BA898D919C911197F60122813381820F64
:10177000931F8D939C93F4E02F0E311CC5CFD7019E
:10178000D4968D919C91D5970E941527F70197AB20
:1017900086AB892B09F462C0F80180819181A28116
:1017A000B38124E4289DF001299DF00D1124EC5C07
:1017B000FC4FAC01BD014D7F21E030E0452B462BB5
:1017C000472B11F020E030E033A322A324E4289D2E
:1017D000F001299DF00D1124EC5CFC4F0197A1094B
:1017E000B10921E030E00297A105B10510F020E039
:1017F00030E035A324A384E4889DF001899DF00D99
:101800001124CF01865A9C4FD80114964D915D91B9
:101810006D917C911797DC014D935D936D937C9353
:101820001397EC5CFC4F868D978DA0A1B1A1B7FFFB
:1018300010C0B095A095909581959F4FAF4FBF4F29
:1018400082AF93AFA4AFB5AF168E178E10A211A2C0
:101850000AC012AE13AE14AE15AE05C0C501B40178
:1018600002DA81E001C080E068960FB6F894DEBF2E
:101870000FBECDBFDF91CF911F910F91FF90EF90E1
:10188000DF90CF90BF90AF909F908F907F906F90A0
:101890005F904F903F902F900895CF92DF92EF92FC
:1018A000FF92CF93DF931092BC0324E4269FF001B4
:1018B000279FF00D1124EC5CFC4F15A614A620E028
:1018C00030E0C12CD12CDF011A96C1E0D0E0C41663
:1018D000D506D4F4ED91FC911197E20FF31FE2804D
:1018E000F3801E141F0454F4E480F580F782E6822E
:1018F000F186E08613861286D183C083EFEFCE1A7D
:10190000DE0A225F3F4FE3CF24E4269FF001279FAA
:10191000F00D1124EC5CFC4F13A612A611AE10AE14
:10192000DF01DE961D921D921D921C92139782E09C
:1019300090E0938B828BDF91CF91FF90EF90DF90BF
:10194000CF90089524E4269FF001279FF00D1124E5
:10195000EC5CFC4F138A128A23CB24E4269FF0010F
:10196000279FF00D1124EC5CFC4F82899389813014
:101970009105C8F08530910518F0059769F0089534
:101980008FEF9FEFDC01828F938FA48FB58F85E05F
:1019900090E0938B828B08958FEF9FEFDC01828F15
:1019A000938FA48FB58F089524E4249FF001259F81
:1019B000F00D1124EC5CFC4F2EE0AC01249FC00123
:1019C000259F900D11240284F385E02DE80FF91F67
:1019D00081E08093BC0382859385918780874085D1
:1019E00051852681378181E090E04217530711F03D
:1019F00080E090E09183808308952F923F924F92F0
:101A00005F926F927F928F929F92AF92BF92CF928E
:101A1000DF92EF92FF920F931F93CF93DF93CDB797
:101A2000DEB7C255D1090FB6F894DEBF0FBECDBFE9
:101A300021969FAF8EAF21974BA75CA76DA77EA77E
:101A40004801590184E4889D8001899D100D11246D
:101A5000F801EC5CFC4F2285338527963FAF2EAF13
:101A6000279782899389029709F060C186A597A577
:101A7000A0A9B1A9892B8A2B8B2B29F484E090E0B3
:101A8000938B828B53C18489958921964EAD5FAD2E
:101A900021974817590709F049C186A997A99AAB18
:101AA00089AB1EAE1DAE19AE1AAE1BAE1CAE8F01B9
:101AB000DF019E962996BFAFAEAF2997F2962B967F
:101AC000FFAFEEAF2B979801285C3F4F2D963FAFAD
:101AD0002EAF2D97A8014A5D5F4F2F965FAF4EAF97
:101AE0002F97C801829661969FAF8EAF61971A9724
:101AF0006396BFAFAEAF63972996EEADFFAD299762
:101B000080819181A281B38129AD3AAD4BAD5CADAD
:101B1000281739074A075B070CF0E7C02B96EEAD94
:101B2000FFAD2B97808191812DAD3EAD280F391FE0
:101B30003EAB2DABD90112960D90BC91A02D2396F2
:101B4000BFAFAEAF2397B695A795B695A795259647
:101B5000BFAFAEAF25972D96EEADFFAD2D9780812F
:101B60009181892B09F496C02F96AEADBFAD2F970A
:101B7000CD90DD90ED90FC9029A83AA8F901019054
:101B8000F081E02DF8ABEFA718AE1FAA8FA998AD92
:101B90002596AEADBFAD25978A179B070CF07AC08E
:101BA0006196AEADBFAD61978D919C91892B69F126
:101BB000EFA5F8A94080518062807380A70196014B
:101BC000C301B2010E94452687FD0BC0A701960103
:101BD000D1016D917D918D919C910E94632587FD2E
:101BE0008CC0A7019601C301B2010E9445261816B8
:101BF00064F4A7019601F101608171818281938172
:101C00000E946325882309F478C06396AEADBFAD0A
:101C100063978D919C91892B69F1EFA5F8A940807C
:101C2000518062807380A7019601C301B2010E94B6
:101C3000632587FF0BC0A7019601D1016D917D91AE
:101C40008D919C910E94452687FF57C0A701960160
:101C5000C301B2010E94632581110CC0A701960146
:101C6000F10160817181828193810E94452618165D
:101C70000CF443C02FA938AD2F5F3F4F38AF2FABC7
:101C800034E0230E311C4FA558A94C5F5F4F58AB71
:101C90004FA77CCFEDA9FEA96081718123964EAD3F
:101CA0005FAD239789A99AA90E94422825968EADF7
:101CB0009FAD2597880F991F880F991F29A93AA9C9
:101CC000280F391F3AAB29AB89AD9AADABADBCAD8E
:101CD0000196A11DB11D89AF9AAFABAFBCAFADAD41
:101CE000BEAD1496BEAFADAF07CF81E090E0D80196
:101CF000D9969C938E93D89719C084E4889DF0015F
:101D0000899DF00D1124EC5CFC4F868D978DA0A170
:101D1000B1A1892B8A2B8B2B09F064C284E090E05F
:101D2000938B828B86AD97AD93A782A784E4889D21
:101D3000F001899DF00D1124EC5CFC4F82899389A0
:101D40008230910571F482AD93ADA4ADB5AD181696
:101D500019061A061B060CF04CC2CC24C394D12CD5
:101D600005C0049709F045C2C12CD12C8EE0219604
:101D7000EEADFFAD21978E9F70018F9FF00C112467
:101D800027962EAD3FAD2797E20EF31ED701129690
:101D90004D915C9113974115510509F42AC216968D
:101DA0008D919C9117979AA789A7FE01319684E19E
:101DB000DF011D928A95E9F7898A9A8AAB8ABC8AE3
:101DC000C114D10409F457C084E4889DF001899DB1
:101DD000F00D1124EC5CFC4FDF01DE964D905D9020
:101DE0006D907C9082AD93ADA4ADB5AD481659060B
:101DF0006A067B0609F03FC0F701648175810084A3
:101E0000F185E02D84819581A681B7819C018D8B20
:101E10009E8BAF8BB88F285F3F4F3E8B2D8BD701AA
:101E200018968D919C911997280F391F19963C93FC
:101E30002E93189718968D919C911997460F571FBE
:101E4000841B950B97FD06C0860F971F19969C93D0
:101E50008E93189784E4889DF001899DF00D1124DC
:101E6000EE58FC4FB1E04B1A5108610871084082EE
:101E70005182628273829E012B5E3F4FAE01475DAD
:101E80005F4F64E170E0C7010E94CA05082F10E0AF
:101E90000115110509F091C18CE090E0A0E0B0E0DF
:101EA0008D839E83AF83B8879E01235E3F4FAE0133
:101EB000475D5F4F64E070E0C7010E94CA05082FCC
:101EC00010E00115110509F078C180E190E0A0E073
:101ED000B0E08D839E83AF83B8874D8D5E8DBE014C
:101EE000655D7F4F8F8D98A10E9442288BA19CA198
:101EF000009761F06D8D7E8DEBE2F0E0EC0FFD1F41
:101F00006E0F7F1F49A15AA10E9442281DA21EA246
:101F10001FA218A621962EAD3FAD2197220F331F89
:101F200038AF2FAB24E4289DC001299D900D1124CA
:101F30008C5C9C4FAC014C5F5F4F5AAF49AFDC01EA
:101F40001896BEAFADAF2DA13EA14FA158A529ABAC
:101F50003AAB4BAB5CABE9ADFAAD80819181A2812C
:101F6000B381281739074A075B070CF0CFC0ADAD26
:101F7000BEADED91FC9189A99AA9880F991F880F90
:101F8000991FE80FF91FA081B1818C91882309F472
:101F9000AFC0833009F4ACC00280F381E02D2FA9DB
:101FA00038ADE20FF31F4081518158AB4FA7452B4D
:101FB00009F49EC089859A85AB85BC850196A11DD3
:101FC000B11D89879A87AB87BC879E01235E3F4FEF
:101FD000AE01475D5F4F64E070E0C7010E94CA0533
:101FE00090E0009709F0E8C08D819E81AF81B885AF
:101FF0000496A11DB11D8D839E83AF83B8874D8D3F
:102000005E8DBE016B5D7F4F8F8D98A10E9442282F
:102010008BA19CA1009761F06D8D7E8DA5E2B0E053
:10202000AC0FBD1F6A0F7B1F49A15AA10E94422815
:102030001EAA1DAA412C512C3201EFA5F8A98081BE
:102040009181A281B381481659066A067B060CF07D
:102050004FC0EFA5F8A9248035802DA93EA9220EF6
:10206000331ED10112966D917C9113979E01235ED0
:102070003F4FAE01475D5F4FC7010E94CA0590E028
:10208000009709F099C0F10182819381092E000C1B
:10209000AA0BBB0B4D815E816F817885840F951FE4
:1020A000A61FB71F8D839E83AF83B8876081718120
:1020B0004D8D5E8D8F8D98A10E9442288BA19CA191
:1020C000009759F0D1016D917C912D8D3E8D620F5D
:1020D000731F49A15AA10E944228BFEF4B1A5B0A05
:1020E0006B0A7B0AEDA9FEA93496FEABEDABA5CF3A
:1020F00049A85AA86BA87CA8FFEF4F1A5F0A6F0A7D
:102100007F0A4DA25EA26FA278A61DCF89859A850F
:10211000AB85BC85892B8A2B8B2B09F44EC08AE1B9
:1021200090E0A0E0B0E089839A83AB83BC832196E2
:102130002EAD3FAD2197C901330FAA0BBB0B8D8785
:102140009E87AF87B88B4D895E89BE016F5F7F4FD9
:102150008F89988D0E9442288B8D9C8D009761F00D
:102160006D897E8941E050E04C0F5D1F640F751F43
:10217000498D5A8D0E94422889A59AA5D7011796A4
:102180009C938E93169711961C921E92CD2889F1DE
:1021900084E4889DF001899DF00D1124EE58FC4FD8
:1021A00080819181A281B3810196A11DB11D80839F
:1021B0009183A283B3831DC08C01CD28D1F4012B60
:1021C000C1F084E4889DF001899DF00D1124EC5C40
:1021D000FC4F81E090E095A784A785E090E0938B89
:1021E000828B07C083E090E0938B828B81E090E04C
:1021F0009BCDCE5ADF4F0FB6F894DEBF0FBECDBFDA
:10220000DF91CF911F910F91FF90EF90DF90CF90D2
:10221000BF90AF909F908F907F906F905F904F9006
:102220003F902F900895CF92DF92EF92FF920F93FD
:102230001F936B017C0184E48C9DF0018D9DF00D5A
:102240001124EC5CFC4F82899389009709F450C0FB
:102250000197B9F482A593A59C012F5F3F4F33A747
:1022600022A7092E000CAA0BBB0B028D138D248D07
:10227000358D80179107A207B307D1F5C701B601C5
:102280000CDB84E48C9DF0018D9DF00D1124EC5C41
:10229000FC4F82899389039759F582A593A59C01E8
:1022A0002F5F3F4F33A722A7092E000CAA0BBB0BB1
:1022B000468D578D60A171A184179507A607B707B2
:1022C000BCF086AD97AD93A782A784E090E0938B96
:1022D000828B82AD93ADA4ADB5AD181619061A0662
:1022E0001B0634F4EE5BFF4F81E090E09183808326
:1022F0001F910F91FF90EF90DF90CF90089524E40D
:10230000269FF001279FF00D1124EC5CFC4F828981
:1023100093890497B1F482A593A5019693A782A708
:10232000092E000CAA0BBB0B46895789608D718D55
:1023300084179507A607B70721F485E090E0938BF3
:10234000828B08952F923F924F925F926F927F926D
:102350008F929F92AF92BF92CF92DF92EF92FF92B5
:102360000F931F93CF93DF93CDB7DEB72E970FB6A2
:10237000F894DEBF0FBECDBF49835A836B837C8345
:102380004901442E552E24E4249DF001259DF00D95
:102390001124EC5CFC4F22883388910124503109D0
:1023A000158614862230310508F0DDC0DC01119657
:1023B0001C921E9213961C921E921297A12CB12C65
:1023C00060E070E09F01265F3F4F38872F837F01D9
:1023D0003CE0E30EF11CDF015096BA87A9879F010C
:1023E000225F3F4F3C872B87681579050CF06FC043
:1023F000EF81F885A081B1819D012A0D3B1D3E87AB
:102400002D87D9012D913C911197232B09F059C0AB
:1024100018960D911C9119971296ED91FC911397B6
:10242000FE83ED8316962D913C911797D7014D9120
:102430005C91DA01E3E0AA0FBB1FEA95E1F7E985B9
:10244000FA85C080D180FD01EC0DFD1D440F551FA4
:10245000AB85BC85CD90DC904C0D5D1DDA016D9394
:102460007C93D7014D915C9111974F5F5F4F4D93D6
:102470005C9313830283AD85BE851B963C932E939C
:102480001A970217130748F4201B310B318320835E
:10249000158214821782168214C0AD85BE851496EB
:1024A000CD90DC9015974D815E814C0D5D1D401BDC
:1024B000510B518340832C193D0935832483D782E6
:1024C000C6826F5F7F4FBEE0AB0EB11C8DCF24E4A0
:1024D000249D8001259D100D11240C5C1C4FF801DA
:1024E00024853585DC0111963C932E9340895189D2
:1024F00013965C934E9312974685578515965C9379
:102500004E931497232BA1F5B5E02B16310481F5DA
:102510001092BC03828D938DA48DB58DAE014F5F5B
:102520005F4F64E070E08F3F9F4FAF4FBF4F59F454
:1025300080E290E00E94141C69817A818B819C81E9
:10254000A40100DA15C08FE190E00E94141CD801AC
:102550009B961C921E929A9781E090E053969C93D2
:102560008E93529705C0FC01118210821382128251
:102570002E960FB6F894DEBF0FBECDBFDF91CF9180
:102580001F910F91FF90EF90DF90CF90BF90AF9091
:102590009F908F907F906F905F904F903F902F9083
:1025A0000895EF92FF920F931F93CF93DF937C01D7
:1025B0008B01EA010E94971C811121C08091BC010E
:1025C0009091BD01049711F183E090E09093BD01DB
:1025D0008093BC011BC098819111F0CF28ED38EB9E
:1025E00045E050E060E070E0CB010E94211FAE01A9
:1025F000B801C7010E942F1FC8010E94FA1E8091D6
:10260000BD039091BE03892B31F3D8CFDF91CF91D9
:102610001F910F91FF90EF900895CF93DF9320913A
:10262000BC013091BD012430310541F0EB010E9425
:102630002F1FCE01DF91CF910C94FA1EDF91CF9125
:1026400008950C943F230C9434230C9422230C946F
:102650000A1F0C94C622089560E070E080E090E0CC
:102660000C94721C0895AF92BF92CF92DF92EF92BA
:10267000FF920F931F93CF93DF9300D0CDB7DEB7B8
:102680005C0169017A018B0180E090E0C114D10402
:10269000E104F104F1F0C114D10421E0E206F104F7
:1026A00010F4A60102C04FEF5FEF9E012F5F3F4F76
:1026B000B801C5010E94E1238F3F2FEF920749F037
:1026C00029813A81C21AD30AE108F108020F131FC7
:1026D000DDCF0F900F90DF91CF911F910F91FF9061
:1026E000EF90DF90CF90BF90AF9008950895089538
:1026F0001F920F920FB60F9211242F933F934F9377
:102700005F936F937F938F939F93AF93BF93EF9359
:10271000FF93E091BE01F091BF010995FF91EF9108
:10272000BF91AF919F918F917F916F915F914F91E9
:102730003F912F910F900FBE0F901F9018951F92F1
:102740000F920FB60F9211242F933F934F935F93E5
:102750006F937F938F939F93AF93BF93EF93FF9369
:10276000E091C001F091C1010995FF91EF91BF91F6
:10277000AF919F918F917F916F915F914F913F9119
:102780002F910F900FBE0F901F9018951F920F92D0
:102790000FB60F9211242F933F938F939F93AF9374
:1027A000BF938091C0039091C103A091C203B091E7
:1027B000C3033091BF0323E0230F2D3720F401968C
:1027C000A11DB11D05C026E8230F0296A11DB11D54
:1027D0002093BF038093C0039093C103A093C203CF
:1027E000B093C3038091C4039091C503A091C60325
:1027F000B091C7030196A11DB11D8093C4039093AE
:10280000C503A093C603B093C703BF91AF919F9137
:102810008F913F912F910F900FBE0F901F901895A1
:102820003FB7F8948091C4039091C503A091C6036B
:10283000B091C70326B5A89B05C02F3F19F001969C
:10284000A11DB11D3FBFBA2FA92F982F8827820F36
:10285000911DA11DB11DBC01CD0142E0660F771F86
:10286000881F991F4A95D1F708958F929F92AF9232
:10287000BF92CF92DF92EF92FF926B017C01D0DF8B
:102880004B015C01C114D104E104F104F1F02EDF2D
:10289000C7DFDC01CB0188199909AA09BB09883E69
:1028A0009340A105B10570F321E0C21AD108E108F7
:1028B000F10888EE880E83E0981EA11CB11CC1149B
:1028C000D104E104F10421F7DDCFFF90EF90DF9018
:1028D000CF90BF90AF909F908F900895789484B5DB
:1028E000826084BD84B5816084BD85B5826085BD0C
:1028F00085B5816085BDEEE6F0E0808181608083F2
:10290000E1E8F0E0108280818260808380818160D4
:102910008083E0E8F0E0808181608083E1EBF0E09B
:10292000808184608083E0EBF0E08081816080833F
:10293000EAE7F0E080818460808380818260808328
:102940008081816080838081806880831092C10053
:1029500008958E3008F08E5087702091C20190E467
:10296000299F90011124822B80937C0080917A0012
:10297000806480937A0080917A0086FDFCCF8091FC
:1029800078002091790090E0922B0895833081F0B7
:1029900028F4813099F08230A1F008958730A9F0B1
:1029A0008830B9F08430D1F4809180008F7D03C0ED
:1029B000809180008F7780938000089584B58F7711
:1029C00002C084B58F7D84BD08958091B0008F775B
:1029D00003C08091B0008F7D8093B0000895CF93A5
:1029E000DF9390E0FC01E456FF4F2491FC01E05599
:1029F000FF4F8491882361F190E0880F991FFC01BB
:102A0000E253FF4FC591D491FC01EC53FF4FA591C8
:102A1000B491611109C09FB7F894888120958223F1
:102A20008883EC912E230BC0623061F49FB7F89439
:102A30003881822F809583238883EC912E2B2C93D1
:102A40009FBF06C08FB7F894E8812E2B28838FBFD5
:102A5000DF91CF9108951F93CF93DF93282F30E01C
:102A6000F901E857FF4F8491F901E456FF4FD491E3
:102A7000F901E055FF4FC491CC23C1F0162F81110D
:102A800085DFEC2FF0E0EE0FFF1FEC53FF4FA59119
:102A9000B4918FB7F894111105C09C91ED2FE0957A
:102AA000E92302C0EC91ED2BEC938FBFDF91CF9126
:102AB0001F910895FC01918D228D892F90E0805CFB
:102AC0009F4F821B91098F7399270895FC01918D67
:102AD000828D981731F0828DE80FF11D858D90E081
:102AE00008958FEF9FEF0895FC01918D828D9817C7
:102AF00061F0828DDF01A80FB11D5D968C91928DE2
:102B00009F5F9F73928F90E008958FEF9FEF0895DE
:102B1000FC01848DDF01A80FB11DA35ABF4F2C917A
:102B2000848D90E001968F739927848FA689B78949
:102B30002C93A089B1898C9180648C93938D848D22
:102B4000981306C00288F389E02D80818F7D8083F1
:102B50000895CF93DF93EC01888D8823C1F0EA8933
:102B6000FB89808185FD05C0A889B9898C9186FD86
:102B70000EC00FB607FCF5CF808185FFF2CFA88984
:102B8000B9898C9185FFEDCFCE01C2DFE8CFDF910F
:102B9000CF910895EF92FF920F931F93CF93DF93FE
:102BA000EC0181E0888F9B8D8C8D981305C0E8899E
:102BB000F989808185FD23C0F62E0B8D10E00F5F13
:102BC0001F4F0F731127E02E8C8DE8120BC00FB62C
:102BD00007FCFACFE889F989808185FFF5CFCE011E
:102BE00097DFF2CF8B8DFE01E80FF11DE35AFF4F07
:102BF000F0820B8FEA89FB898081806207C0EE89B1
:102C0000FF896083E889F98980818064808381E01D
:102C100090E0DF91CF911F910F91FF90EF90089579
:102C2000CF92DF92EF92FF921F93CF93DF93EC014D
:102C30006A017B01122FE889F98982E080834115BE
:102C4000514E61057105B1F060E079E08DE390E0EF
:102C5000A70196010E94BF26DA01C9010197A109C7
:102C6000B109B695A79597958795AC01411580E177
:102C70005807A8F0E889F989108260E874E88EE1C5
:102C800090E0A70196010E94BF26BA01A901415018
:102C90005109610971097695679557954795EC85B6
:102CA000FD855083EE85FF854083188EEC89FD8974
:102CB0001083EA89FB89808180618083EA89FB89AE
:102CC000808188608083EA89FB8980818068808335
:102CD000EA89FB8980818F7D8083DF91CF911F916D
:102CE000FF90EF90DF90CF9008951F920F920FB654
:102CF0000F9211242F938F939F93EF93FF93E09163
:102D0000D803F091D9038081E091DE03F091DF03D5
:102D100082FD12C090818091E1038F5F8F732091BB
:102D2000E203821751F0E091E103F0E0E853FC4F39
:102D3000958F8093E10301C08081FF91EF919F9176
:102D40008F912F910F900FBE0F901F9018951F928B
:102D50000F920FB60F9211242F933F934F935F93CF
:102D60006F937F938F939F93AF93BF93EF93FF9353
:102D700088EC93E0CDDEFF91EF91BF91AF919F91F1
:102D80008F917F916F915F914F913F912F910F9014
:102D90000FBE0F901F901895E8ECF3E0138212829B
:102DA00088EE93E0A0E0B0E084839583A683B783A8
:102DB00085EA92E09183808385EC90E09587848713
:102DC00084EC90E09787868780EC90E0918B808BF5
:102DD00081EC90E0938B828B82EC90E0958B848BDE
:102DE00086EC90E0978B868B118E128E138E148E4C
:102DF00008958F929F92AF92BF92CF92DF92EF92FF
:102E0000FF920F931F93CF93DF937C018B016C0193
:102E100082E0C80ED11C4701E5E08E0E911CC0E097
:102E2000D0E0F60161916F014AE050E0C801C6D0E0
:102E30005C016EE2C80167D08A0D9B1DC80FD91FC7
:102E4000C814D90471F74AE050E0F7016581C80160
:102E5000B5D08C0F9D1FDF91CF911F910F91FF90E7
:102E6000EF90DF90CF90BF90AF909F908F9008959C
:102E7000E5E6F4E085EB92E0918380831282138291
:102E8000148215820895CF92DF92EF92FF920F93F2
:102E90001F93CF93DF936C017A018B01C0E0D0E0E8
:102EA000CE15DF0589F0D8016D918D01D601ED9128
:102EB000FC910190F081E02DC6010995892B11F458
:102EC0007E0102C02196ECCFC701DF91CF911F9107
:102ED0000F91FF90EF90DF90CF90089561157105ED
:102EE00079F0FB0101900020E9F73197AF01461B13
:102EF000570BDC01ED91FC910280F381E02D0994E8
:102F000080E090E00895DC01ED91FC910190F0816A
:102F1000E02D09944F925F926F927F92EF92FF9211
:102F20000F931F93CF93DF93CDB7DEB7A1970FB663
:102F3000F894DEBF0FBECDBF7C01FA01CB0119A210
:102F4000223008F42AE08E010F5D1F4F422E512CD3
:102F5000612C712CBF01A30192010E94BF26F901CF
:102F6000CA01015011096A3014F4605D01C0695C46
:102F7000D8016C93232B242B252B61F7B801C701B3
:102F8000ADDFA1960FB6F894DEBF0FBECDBFDF91C7
:102F9000CF911F910F91FF90EF907F906F905F9076
:102FA0004F9008952115310541F4DC01ED91FC911C
:102FB0000190F081E02D642F0994ACCF9A01462F47
:102FC00050E060E070E0EECF813039F018F08230F0
:102FD00051F0089510926E00089580916F008D7FDA
:102FE00080936F000895809170008D7F80937000B2
:102FF00081E08093B0008091B100887F84608093ED
:10300000B1001092B3000895CF93C82F8091C301EF
:103010008C1307C0E8EDF0E0E4918FEF8093C301DB
:1030200001C0EFEF8E2FD0DF60E08C2FCF9113CD5A
:103030001F920F920FB60F9211242F933F934F932D
:103040005F936F937F938F939F93AF93BF93EF9310
:10305000FF9380916E0490916F04A0917004B091E1
:103060007104892B8A2B8B2B51F180916B04E09199
:103070006C04F0916D0490818927808380916E04A7
:1030800090916F04A0917004B09171041816190604
:103090001A061B06BCF480916E0490916F04A091F7
:1030A0007004B09171040197A109B10980936E0475
:1030B00090936F04A0937004B093710403C0809147
:1030C000C301A2DFFF91EF91BF91AF919F918F91CB
:1030D0007F916F915F914F913F912F910F900FBE14
:1030E0000F901F90189540E855E260E070E080E096
:1030F00090E000C026E088EC93E092CD1F920F9202
:103100000FB60F9211242F933F934F935F936F93BA
:103110007F938F939F93AF93BF93EF93FF938FE82A
:103120009DEF90938500809384000E941B24FF9163
:10313000EF91BF91AF919F918F917F916F915F912F
:103140004F913F912F910F900FBE0F901F901895A8
:103150008FE89DEF9093850080938400AFE6B0E008
:103160008C918E7F8C93E0E8F0E080818C7F80836F
:10317000E1E8F0E08081877E8083808184608083C5
:1031800080818C7F80838C9181608C930895EFE6A1
:10319000F0E080818E7F8083089581E008956F92B2
:1031A0007F928F929F92AF92BF92CF92DF92EF92D7
:1031B000FF920F931F93CF93DF935C017B014A0132
:1031C00001E010E00E151F0564F568018FEFC81AC5
:1031D000D80AE801CC0FDD1FC80DD91D68807980A1
:1031E00061147104E1F067EB72E0C3010E945228A0
:1031F000892B19F41982188212C06AEB72E0C3019C
:103200000E945228892B59F4CE14DF0441F0680142
:10321000E2E0CE0ED11C198218821B821A8286012E
:10322000D1CF81E0F5018083B401C7010E946C23F6
:10323000F5019283818380E090E0DF91CF911F912F
:103240000F91FF90EF90DF90CF90BF90AF909F9045
:103250008F907F906F90089582E794E0089580E0CA
:1032600008950F931F93CF93DF938B01BA01E90168
:10327000198218829801012E000C440B550BFC0199
:1032800081819281F0D9019621F01983088380E031
:1032900001C081E0DF91CF911F910F9108950F93AD
:1032A0001F93CF93DF9300D0CDB7DEB7FB018A0128
:1032B000B9019E012F5F3F4FAF01FC0181819281D7
:1032C0000E948323019639F089819A81F8019183C4
:1032D000808380E001C081E00F900F90DF91CF915B
:1032E0001F910F910895FC0180810895089508951C
:1032F00081E0FB01808380E00895089510929C0492
:103300000895FC01818192810C946123CF93DF9316
:10331000CDB7DEB72A970FB6F894DEBF0FBECDBF8C
:10332000AC01CB0160E070E049835A836B837C83FE
:10333000092E000CAA0BBB0B8D839E83AF83B8872D
:103340009E01275F3F4FAE014F5F5F4F68E070E027
:1033500080918B0490918C0484DF811108C081E0FE
:1033600029853A852830310519F480E001C081E0D3
:103370002A960FB6F894DEBF0FBECDBFDF91CF9176
:1033800008950F931F93CF93DF9300D0CDB7DEB78F
:103390008B019E012F5F3F4FAC0180918B04909178
:1033A0008C045FDF811108C081E029813A812017F8
:1033B000310719F480E001C081E00F900F90DF9198
:1033C000CF911F910F910895CF93DF93EC0110924D
:1033D0008F0410928E0410929B0410929A04AC01F8
:1033E00060E070E0CB010E94A20CAE0161E070E0F1
:1033F00080E090E00E94A20C80918B0490918C045C
:10340000DF91CF917ACF4F925F926F927F928F929E
:103410009F92AF92BF92CF92DF92EF92FF920F9363
:103420001F93CF93DF9300D0CDB7DEB79C016C0123
:1034300097FF03C087E0C80ED11C43E0D594C79422
:103440004A95E1F7C90168E070E00E94AC267C0172
:1034500089010E5F1F4F8091890490918A04801723
:1034600091070CF0DCC0809187049091880400974C
:1034700031F00E94AA2710928A0410928904C80190
:103480000E9415279093880480938704892B29F044
:1034900010938A0400938904C2C0A12CB12CAC14EF
:1034A000BD040CF05EC0412C512C320100E010E054
:1034B000980120573B4FAE014F5F5F4F61E070E0D6
:1034C00080918B0490918C04EADE811198C18981EE
:1034D0009A812FEF421A520A620A720A20E94216B2
:1034E0002FE5520621E0620671043CF060919A04D7
:1034F00070919B048DEE90E02DC0080F191F0A30CB
:10350000110551F549E050E060E070E080E994E099
:103510000E940D2460919A0470919B048823C1F04D
:103520008091980490E06817790709F0B8CF8EEE83
:1035300090E0ECDE80919A0490919B04019699278B
:1035400090939B0480939A048FEFA81AB80AA7CF90
:103550008FEE90E0DBDEA7CF0A3011050CF4A8CF88
:103560009ECFEF2809F44BC1C12CD12C760100E08D
:1035700010E0980120573B4FAE014F5F5F4F61E075
:1035800070E080918B0490918C0489DE811137C1A9
:1035900089819A812FEFC21AD20AE20AF20A20E93F
:1035A000C2162FE5D20621E0E206F1043CF060915C
:1035B0009A0470919B048DEE90E02AC0080F191FA9
:1035C0000A30110539F549E050E060E070E080E92B
:1035D00094E00E940D2460919A0470919B048823CA
:1035E000A9F08091980490E06817790709F007C165
:1035F0008EEE90E08BDE80919A0490919B04019670
:10360000992790939B0480939A04F9C08FEE90E0E1
:103610007DDEAACF0A3011050CF4ABCFF0C000E07C
:1036200010E00C151D050CF077C0412C512C320117
:10363000A12CB12C480193E0880C991C9A95E1F7D4
:103640002091870430918804C4018A0D9B1D280FA6
:10365000391FAE014F5F5F4F61E070E080918B04D6
:1036600090918C041CDE8111CAC089819A812FEF50
:10367000421A520A620A720A20E942162FE55206DD
:1036800021E0620671043CF060919A0470919B0401
:103690008DEE90E034C0A80EB91E8AE0A816B104E1
:1036A000A9F549E050E0B401809187049091880425
:1036B0000E940D2460919A0470919B048823E9F084
:1036C0008091870490918804FC01E80DF91D8085A4
:1036D00090E06817790709F0A4CF8EEE90E016DE2F
:1036E00080919A0490919B040196992790939B0452
:1036F00080939A040F5F1F4F94CF8FEE90E006DE09
:10370000412C512C3201A12CB12C9ACF2AE0A216C7
:10371000B1040CF495CF85CFE114F10409F46AC02B
:10372000680183E0CC0CDD1C8A95E1F7812C912C9B
:10373000540100E010E0980120573B4FAE014F5F6D
:103740005F4F61E070E080918B0490918C04A7DD65
:10375000811155C089819A812FEF821A920AA20A9B
:10376000B20A20E982162FE5920621E0A206B104F2
:103770003CF060919A0470919B048DEE90E034C00F
:10378000080F191F0A30110589F549E050E060E083
:1037900070E080E994E00E940D2460919A04709199
:1037A0009B048823F9F08091980490E068177907CA
:1037B00009F58EEE90E0AADD80918704909188044F
:1037C000A70160E974E08C0D9D1D0E944228809144
:1037D0009A0490919B040196992790939B0480935F
:1037E0009A0408C08FEE90E091DDA0CF0A30110559
:1037F0000CF4A1CF809187049091880402C080E0EE
:1038000090E00F900F90DF91CF911F910F91FF905B
:10381000EF90DF90CF90BF90AF909F908F907F9070
:103820006F905F904F900895CF92DF92EF92FF924A
:103830000F931F93CF93DF931F92CDB7DEB76C0129
:103840007B018A01452B31F0AB0160E070E0C801DB
:10385000E0D78983B701C60159DD81110DC001157B
:10386000110551F0B701C8018CDD811105C061E07F
:1038700070E0CE01019685DD0F90DF91CF911F9111
:103880000F91FF90EF90DF90CF900895CF92DF924D
:10389000EF92FF92CF93DF93CDB7DEB728970FB6A5
:1038A000F894DEBF0FBECDBF6B01E12CF12CC982B5
:1038B000DA82EB82FC822D833E834F835887AE01F0
:1038C0004F5F5F4F68E070E0AFDF28960FB6F89467
:1038D000DEBF0FBECDBFDF91CF91FF90EF90DF90A5
:1038E000CF9008950F931F93CF93DF93EC018B013B
:1038F000B3DC90938C0480938B04009739F0A8017B
:10390000BE014DDCEC01892B19F40BC0C6ECD2E0F2
:1039100080918B0490918C04E9DC10928C041092BD
:103920008B04CE01DF91CF911F910F91089580916B
:103930008B0490918C04D7CC2F923F924F925F9240
:103940006F927F928F929F92AF92BF92CF92DF92AF
:10395000EF92FF920F931F93CF93DF93CDB7DEB714
:1039600069970FB6F894DEBF0FBECDBF20918F04CC
:10397000222309F426C25D8B4C8B688B798B8A8B52
:103980009B8B9A01AB01BC01CE0101960E94A21152
:1039900010E038E0232E312C89819A8118161906FF
:1039A0000CF00AC21F861E861D861C8689819A819C
:1039B000AC85BD85A817B9070CF0F3C1EB81FC817C
:1039C0002E853F85E20FF31F2081318130938604DD
:1039D000209385048481958190938404809383044B
:1039E00042815381509382044093810446815781E0
:1039F0005093800440937F04820F931F9C01990F82
:103A0000440B550B2E8B3F8B488F598FC12CD12CDB
:103A100076012E893F89488D598DC216D306E4065A
:103A2000F50608F0A2C11F8260918504709186049A
:103A30008B01072E000C220B330BD701C601049615
:103A4000A11DB11D80179107A207B30728F4E091CB
:103A50008104F09182040AC0E4E0F0E0E61BF70B79
:103A6000EC0DFD1D80917F0490918004E80FF91FFB
:103A70004080512C612C712CD701C6010596A11DE7
:103A8000B11D80179107A207B30728F4E0918104C4
:103A9000F09182040AC0E5E0F0E0E61BF70BEC0DC4
:103AA000FD1D80917F0490918004E80FF91F8081B3
:103AB000582AD701C6010696A11DB11D801791078E
:103AC000A207B30728F4E0918104F09182040AC0B0
:103AD000E6E0F0E0E61BF70BEC0DFD1D80917F04A6
:103AE00090918004E80FF91F8081682AD701C601F0
:103AF0000796A11DB11D80179107A207B30728F4EF
:103B0000E0918104F09182040AC0E7E0F0E0E61B56
:103B1000F70BEC0DFD1D80917F0490918004E80F60
:103B2000F91F8081782A4601570148E0840E911CD4
:103B3000A11CB11C081519052A053B0508F4B4C0E1
:103B4000C016D106E206F30638F480918104909104
:103B500082048C0D9D1D09C0C601861B970B209108
:103B60007F0430918004820F931F68E070E009DCCD
:103B7000E0918504F09186049F010F2E000C440B08
:103B8000550BD301C201880D991DAA1DBB1D281715
:103B900039074A075B07C8F082169306A406B506E4
:103BA00038F42091810430918204C601089609C03E
:103BB000C1018E1B9F0B8C0D9D1D20917F043091A8
:103BC0008004820F931FB20199C08601BF01685023
:103BD00071096C197D0982169306A406B50638F49E
:103BE0002091810430918204C601089609C0C10168
:103BF0008E1B9F0B8C0D9D1D20917F0430918004A6
:103C0000820F931FBEDB8091850490918604B101E1
:103C1000681B790B600F711F640D751D80917F0407
:103C200090918004AEDB8091850490918604AC0174
:103C300048505109FA01E01BF10BAC01092E000CB0
:103C4000660B770B84169506A606B70638F4209106
:103C5000810430918204C60108960AC09101281B94
:103C6000390BC9018C0D9D1D20917F04309180047A
:103C7000820F931FAF0160E070E0CBD58F8320915E
:103C8000850430918604A101421B530B9A01200F39
:103C9000311F240D351D40E050E0682F80917F04D6
:103CA00090918004A2D550C0C016D106E206F3065A
:103CB000C8F46C197D0980918104909182048C0D67
:103CC0009D1D5FDB8091850490918604B101681B86
:103CD000790B6C0D7D1D640D751D80917F04909195
:103CE00080040CC0C601861B970B20917F04309185
:103CF0008004B201685F7F4F820F931F42DB809187
:103D0000850490918604AC01092E000C660B770B9C
:103D100084169506A606B70638F4209181043091E2
:103D20008204C60108960AC0D101A81BB90BCD01B7
:103D30008C0D9D1D20917F0430918004820F931F74
:103D4000A20160E070E065D58F8361E070E0CE0194
:103D5000079617DB182FB8E04B0E511C611C711C25
:103D6000C40CD51CE61CF71C54CE8C859D85880F91
:103D7000991FED81FE81E80FF91F488959896A89E9
:103D80007B89808191810E94D40C4C855D854F5F39
:103D90005F4F5D874C878E859F8508969F878E87AE
:103DA00005CE2C893D89488959896A897B89CE014C
:103DB00001960E94A211F0CD112319F08C899D89E2
:103DC00003DB69960FB6F894DEBF0FBECDBFDF915F
:103DD000CF911F910F91FF90EF90DF90CF90BF9008
:103DE000AF909F908F907F906F905F904F903F909B
:103DF0002F900895CF93DF93EC01AC0160E070E069
:103E0000CB019ADDAE0161E070E080E090E0DF91EF
:103E1000CF9192CDCF9380918B0490918C041FDA37
:103E2000C82F81110BC060E070E0CB010E94A40795
:103E300061E070E080E090E00E94A4078C2FCF91B9
:103E400008950F931F9389019A01AB01BC018091E2
:103E50008B0490918C044BDA1F910F9108953F923F
:103E60004F925F926F927F928F929F92AF92BF928A
:103E7000CF92DF92EF92FF920F931F93CF93DF9336
:103E8000CDB7DEB767970FB6F894DEBF0FBECDBFD4
:103E90006C017B015A0180918F04882331F080915D
:103EA0008F04882309F45AC30AC06FE874E0809134
:103EB0008B0490918C041CDA811150C3F0CF809157
:103EC0008E041A821982882309F46AC0E0E94E2E12
:103ED000EFE55E2E66246394712C00E010E09801FB
:103EE0002B583B4FAE014F5F5F4F61E070E0809118
:103EF0008B0490918C04D3D9982E81114DC0898167
:103F00009A81080F191F0115110509F445C081E0B8
:103F1000481A51086108710839F460919A04709147
:103F20009B048DEE90E030C00A30110589F549E020
:103F300050E060E070E085E794E06FD460919A040F
:103F400070919B048823F1F080917D0490E06817C4
:103F50007907D9F48EEE90E0D9D988E0E5E7F4E06E
:103F6000DE01199601900D928A95E1F720919A044D
:103F700030919B042F5F3F4F332730939B04209356
:103F80009A040AC08FEE90E0C1D91A82198204C047
:103F90000A3011050CF4A3CF81E029813A8124C0B5
:103FA00000E010E078E0672E712C29E030E02C0F63
:103FB0003D1F200F311FAE014F5F5F4FB301601BEC
:103FC000710B80918B0490918C0469D9982E298172
:103FD0003A81811108C0020F131F0115110519F054
:103FE0000830110514F381E0121613060CF080E07E
:103FF0009110B1C2882309F4B1C280918E0481115D
:1040000004C019861A861B861C8689859A85AB850D
:10401000BC858031910508F0A1C2FC01EC5CFF4F2A
:10402000D0C6D6011696ED91FC91179780819181AB
:10403000A281B38189839A83AB83BC83AE014F5F36
:104040005F4F64E070E085E190E07DC18D859E85E5
:10405000DAD9009731F42FEF3FEFA90161E070E06A
:104060000EC0FC0180809180A280B380A701C501B1
:10407000B4010E944D0CA501940160E070E08DE157
:1040800090E067C28D859E85BED9009721F42FEF01
:104090003FEFA90110C0DC018D909D90AD90BD90C7
:1040A000AD0195018401B701C6010E94E908A5018F
:1040B0009401882319F061E070E002C060E070E0D4
:1040C0008BE190E046C28D859E859DD9009721F4B5
:1040D0002FEF3FEFA9010FC0FC0181909190A190BB
:1040E000B190BF01A5019401C6010E94F20AA50189
:1040F0009401882319F061E070E002C060E070E094
:104100008CE190E026C2D6011496ED91FC911597B2
:1041100000811181F80182809380A080B18060E1EC
:10412000462E512C612C712C49825A826B827C82E2
:1041300088E090E0A0E0B0E08D839E83AF83B887F5
:104140009E012F5E3F4FAE014F5F5F4F68E070E012
:1041500080918B0490918C0484D8882319F000E01E
:1041600010E0BAC089899A890897C9F7D801ED90FB
:10417000FC90B8E0EB0EF11CEE0CFF1CEE0CFF1CEB
:10418000C70153D68C01892B51F349825A826B8225
:104190007C82C7010F2C000CAA0BBB0B8D839E8366
:1041A000AF83B8879E012F5E3F4FAE014F5F5F4FD9
:1041B00068E070E080918B0490918C0452D881115A
:1041C0008BC089899A89089709F086C0D601129612
:1041D000ED91FC9113974081518162817381D801E7
:1041E0004D935D936D937C931397448155816681C4
:1041F000778114964D935D936D937C9317974085CB
:1042000051856285738518964D935D936D937C936C
:104210001B9784859585A685B785F8018487958742
:10422000A687B787108A118A128A138A84E090E0E1
:10423000A0E0B0E0848B958BA68BB78B8091BC01FE
:104240009091BD01A0E0B0E0808F918FA28FB38FDD
:10425000C5010B2C000CAA0BBB0B848F958FA68F6E
:10426000B78FF401D801909680E090E08A159B0505
:1042700054F44191519160E070E04D935D936D93E2
:104280007D930196F3CF9E012F5E3F4FA801B701AA
:1042900080918B0490918C040E94311981111CC073
:1042A00089899A898E159F05B9F4A70160E070E0AD
:1042B000C801AFD28B8B9E012F5E3F4FAE014D5E8A
:1042C0005F4F61E070E080918B0490918C040E94BC
:1042D000311981E080938E04C80167960FB6F89477
:1042E000DEBF0FBECDBFDF91CF911F910F91FF9029
:1042F000EF90DF90CF90BF90AF909F908F907F9086
:104300006F905F904F903F9025C68D859E85AF85BD
:10431000B8890097A105B10521F481E080938D044F
:104320001DC171D8009789F481E090E0A0E0B0E071
:1043300089839A83AB83BC83AE014F5F5F4F64E098
:1043400070E082E190E070DA09C1BC01C6010E9410
:10435000F60619821A821B821C82AE014F5F5F4FE4
:1043600064E070E082E190E05FDA8111F7C0D5CFC0
:10437000D6011496ED91FC9115970190F081E02DF6
:10438000008511858FEF89830115110509F472C02D
:10439000D8016D907C90A280B38020E030E060E096
:1043A00070E080E090E0861597050CF5F801A28199
:1043B000B381A20FB31F1296ED91FC911397EE0FEC
:1043C000FF1FEA0DFB1D0190F081E02D16960D9068
:1043D000BC91A02DEA9FA001EB9F500DFA9F500DBC
:1043E0001124640F751F0196285F3F4FDCCF83E1D6
:1043F00090E00E9486198111B1C0C12CD12CE12C12
:10440000F12CE614F7047CF5D8011296ED91FC919D
:104410001397EC0DFD1D80809180A281B381AA0FBE
:10442000BB1FAA0DBB1D2D913C9186819781289FB2
:104430002001299F500C389F500C1124B201C40157
:104440000E94C119382E920140E050E06981C401F8
:10445000CCD18983B8E0CB0ED11C31107FC0EFEFF7
:10446000EE1AFE0ACECF61E070E0CE0101960E9406
:10447000C11974C060E070E083E190E00E94861989
:104480006DC040E050E060E070E081E190E0CCD9A8
:10449000811164C0812C912C5401C501B4010E948A
:1044A000D0088091BC03882321F0A701C501B40185
:1044B00043DAA701C501B4010E94D0078A94892874
:1044C0008A288B2829F0812C912C54018394E5CFE4
:1044D00010928F0410928E0410929B0410929A04F2
:1044E00080918B0490918C040E947E1937C081E0EA
:1044F00090E09093BE038093BD0340E050E060E005
:1045000070E086E190E01FCF81E0D5018C9326C05A
:104510008D859E850E94031A009731F42FEF3FEF9F
:10452000A90161E070E013C0FC012081318142816A
:104530005381CA01B9012C8B3D8B4E8B5F8B0E943E
:10454000AD0C2C893D894E895F8960E070E08EE179
:1045500090E09CD903C0C7010E94E41967960FB68A
:10456000F894DEBF0FBECDBFDF91CF911F910F91A9
:10457000FF90EF90DF90CF90BF90AF909F908F9083
:104580007F906F905F904F903F900895CF92DF9211
:10459000EF92FF92CF93DF93EC01C12CD12C7601E7
:1045A000C701B6010E94D008AE01C701B601C4D947
:1045B000AE01C701B6010E94D00780918704909197
:1045C0008804009729F0C6D41092880410928704BA
:1045D000CA94CD28CE28CF2829F0C12CD12C760121
:1045E000C394DECF80918E04882359F040E050E0E0
:1045F00060E070E084E190E017D9F82E10928E040C
:1046000001C0F12C80918F04882341F010928F0417
:1046100081E090E09093BD018093BC0180918B0478
:1046200090918C040E94811980918B0490918C044C
:104630000E9476198F2DDF91CF91FF90EF90DF9040
:10464000CF900895CF93DF93EC01AC0160E070E070
:10465000CB010E941311AE0161E070E080E090E0B8
:10466000DF91CF910C94131160E070E0CB010E94B8
:104670007F1161E070E080E090E00C947F11CF92B8
:10468000DF92EF92FF920F931F93CF93DF93EC0192
:104690006A017B0100E010E098010E94FD0C01E03E
:1046A00010E020E030E0B701A601CE010E94FD0C31
:1046B000DF91CF911F910F91FF90EF90DF90CF90FE
:1046C00008950E94C71868EE73E080E090E00E94B1
:1046D000351480E090E0089526E040E050E16EE07F
:1046E00070E088EC93E00E94101688EC93E00E9442
:1046F0005A15892B29F088EC93E00E947415F5CFA8
:1047000080E090E00895AF92BF92CF92DF92EF9257
:10471000FF920F931F93CF93DF9300D0CDB7DEB7F7
:104720007A018901F9011182108288EC93E0698392
:104730007A830E945A1569817A81892B99F15B01EC
:10474000DD24D39485E6C82E80919C04811124C079
:1047500088EC93E00E94741585369105A9F7D092F4
:104760009C04F501C1925F01F8018081918101965D
:1047700091838083E9CF88EC93E00E9474158F3F8A
:10478000FFEF9F0749F0F50181935F01F8018081F8
:104790009181019691838083F801808191818E15AA
:1047A0009F0548F380E090E00F900F90DF91CF914C
:1047B0001F910F91FF90EF90DF90CF90BF90AF903F
:1047C00008950F931F93CF93DF93EA01890188EC3B
:1047D00093E00E944317F801D183C08380E090E00A
:1047E000DF91CF911F910F910895DC01A40FB51FA8
:1047F000240F351FAD01481B590B4217530738F4DE
:10480000ED91E627F0E0E752FF4F6491F3CF862F5A
:1048100008959A01AB016FEFE8CFCF93FC01E60F4B
:10482000F71FE40FF51FC081F4DF91E0C81390E09B
:10483000892FCF910895CF93DF9300D0CDB7DEB706
:104840008091A00491E0980F9093A004882349F0F0
:1048500021E030E03093A3042093A2048093A004CD
:104860003CC0CE0101960E944D0178940E945501F2
:10487000F8948091A00481508093A0048A818823B9
:1048800089F080919F0491E0980F90939F04882372
:1048900049F021E030E03093A3042093A2048093F8
:1048A0009F041BC080919F048823A9F08091A104DC
:1048B000811113C081E08093A10478940E94F502D5
:1048C000F89480919F04815080939F048091A1046B
:1048D00081508093A1040E9423130F900F90DF91C9
:1048E000CF910895FF920F931F93CF93DF9300D042
:1048F000CDB7DEB7FF24F394FA820E946E140E94B3
:10490000731800919F021091A002F8011182108289
:1049100060E070E080E090E00E942C130E94C603EB
:104920007894C80188960E942B1382E090E00E9440
:1049300027131982AE014F5F5F4F62E070E0F8010C
:10494000828193810E94D1128981882311F0F8011C
:10495000F4A60E943213F8940E94A818F8018081EE
:104960009181892B19F481E094A5911180E08A83CB
:1049700078947894FF24F3948A81882371F11982C2
:10498000AE014F5F5F4F62E070E0F801828193817A
:104990000E940D138981882311F0F801F4A6F80113
:1049A00080819181892B31F481E094A5911103C01C
:1049B00080E001C081E080939D0490919D0481E09E
:1049C000911180E08A838A81882319F00E94CD1892
:1049D00002C080E090E08A83CFCF0E94980582E0F9
:1049E00090E00E942913F89480E090E00F900F90DF
:1049F000DF91CF911F910F91FF9008955058BB27E1
:104A0000AA270ED008C1F9D030F0FED020F031F442
:104A10009F3F11F41EF4EEC00EF4E095E7FBE4C0F6
:104A2000E92F0AD180F3BA17620773078407950745
:104A300018F071F49EF522C10EF4E0950B2EBA2FFA
:104A4000A02D0B01B90190010C01CA01A001112494
:104A5000FF27591B99F0593F50F4503E68F11A1640
:104A6000F040A22F232F342F4427585FF3CF4695D1
:104A700037952795A795F0405395C9F77EF41F16F3
:104A8000BA0B620B730B840BBAF09150A1F0FF0FBD
:104A9000BB1F661F771F881FC2F70EC0BA0F621FA9
:104AA000731F841F48F4879577956795B795F79599
:104AB0009E3F08F0B3CF9395880F08F09927EE0F2B
:104AC0009795879508956CD008F481E00895BCD03F
:104AD00088F09F5790F0B92F9927B751A0F0D1F0E7
:104AE000660F771F881F991F1AF0BA95C9F712C071
:104AF000B13081F0C3D0B1E00895C0C0672F782FE6
:104B00008827B85F39F0B93FCCF3869577956795DC
:104B1000B395D9F73EF490958095709561957F4F48
:104B20008F4F9F4F0895E89409C097FB3EF49095EE
:104B30008095709561957F4F8F4F9F4F9923A9F076
:104B4000F92F96E9BB279395F69587957795679505
:104B5000B795F111F8CFFAF4BB0F11F460FF1BC049
:104B60006F5F7F4F8F4F9F4F16C0882311F096E9DC
:104B700011C0772321F09EE8872F762F05C066238A
:104B800071F096E8862F70E060E02AF09A95660F43
:104B9000771F881FDAF7880F9695879597F90895FC
:104BA000990F0008550FAA0BE0E8FEEF161617063E
:104BB000E807F907C0F012161306E407F50798F0A6
:104BC000621B730B840B950B39F40A2661F0232BBF
:104BD000242B252B21F408950A2609F4A140A6953B
:104BE0008FEF811D811D089597F99F6780E870E020
:104BF00060E008959FEF80EC089500240A94161653
:104C0000170618060906089500240A9412161306BA
:104C1000140605060895092E0394000C11F4882348
:104C200052F0BB0F40F4BF2B11F460FF04C06F5F64
:104C30007F4F8F4F9F4F089557FD9058440F551F3A
:104C400059F05F3F71F04795880F97FB991F61F00E
:104C50009F3F79F087950895121613061406551F85
:104C6000F2CF4695F1DF08C0161617061806991FF1
:104C7000F1CF86957105610508940895E894BB27E6
:104C800066277727CB0197F908958ADF08F48FEF1D
:104C900008950BD0C0CFB1DF28F0B6DF18F0952310
:104CA00009F0A2CFA7CF1124EACFC6DFA0F3959FCA
:104CB000D1F3950F50E0551F629FF001729FBB2703
:104CC000F00DB11D639FAA27F00DB11DAA1F649FAF
:104CD0006627B00DA11D661F829F2227B00DA11D62
:104CE000621F739FB00DA11D621F839FA00D611DE8
:104CF000221F749F3327A00D611D231F849F600D09
:104D0000211D822F762F6A2F11249F5750408AF041
:104D1000E1F088234AF0EE0FFF1FBB1F661F771FCD
:104D2000881F91505040A9F79E3F510570F05CCF0D
:104D3000A6CF5F3FECF3983EDCF3869577956795B9
:104D4000B795F795E7959F5FC1F7FE2B880F911DEB
:104D50009695879597F9089597FB072E16F400947A
:104D600006D077FD08D033D007FC05D03EF49095EF
:104D700081959F4F0895709561957F4F0895A1E2A9
:104D80001A2EAA1BBB1BFD010DC0AA1FBB1FEE1FC5
:104D9000FF1FA217B307E407F50720F0A21BB30B10
:104DA000E40BF50B661F771F881F991F1A9469F78C
:104DB00060957095809590959B01AC01BD01CF01E8
:104DC0000895EE0FFF1F0590F491E02D0994AA1BA2
:104DD000BB1B51E107C0AA1FBB1FA617B70710F0E6
:104DE000A61BB70B881F991F5A95A9F78095909518
:104DF000BC01CD0108950F931F93CF93DF93869F3E
:104E00008001879F100D969F100D1124C8010DD0B1
:104E1000EC01009721F0A80160E070E03CD1CE01E8
:104E2000DF91CF911F910F910895CF93DF9382303F
:104E3000910510F482E090E0E091AD05F091AE05AF
:104E400020E030E0C0E0D0E0309711F140815181A6
:104E500048175907C0F04817590761F482819381B8
:104E6000209719F09B838A832BC09093AE05809383
:104E7000AD0526C02115310519F04217530718F466
:104E80009A01BE01DF01EF010280F381E02DDCCF4A
:104E90002115310509F1281B390B2430310590F417
:104EA00012968D919C9113976115710521F0FB016C
:104EB0009383828304C09093AE058093AD05FD017A
:104EC000329644C0FD01E20FF31F8193919322506B
:104ED00031092D933C933AC02091AB053091AC053C
:104EE000232B41F420910201309103013093AC0552
:104EF0002093AB052091000130910101211531056E
:104F000041F42DB73EB74091040150910501241B97
:104F1000350BE091AB05F091AC05E217F307A0F477
:104F20002E1B3F0B2817390778F0AC014E5F5F4FFF
:104F30002417350748F04E0F5F1F5093AC05409380
:104F4000AB058193919302C0E0E0F0E0CF01DF91E7
:104F5000CF9108950F931F93CF93DF93009709F498
:104F60008CC0FC013297138212820091AD05109122
:104F7000AE050115110581F420813181820F931F47
:104F80002091AB053091AC052817390779F5F093DE
:104F9000AC05E093AB0571C0D80140E050E0AE171E
:104FA000BF0750F412962D913C911397AD01211536
:104FB000310509F1D901F3CF9D01DA013383228351
:104FC00060817181860F971F8217930769F4EC0146
:104FD00028813981260F371F2E5F3F4F3183208371
:104FE0008A819B8193838283452B29F4F093AE05BC
:104FF000E093AD0542C01396FC93EE931297ED013A
:10500000499159919E01240F351FE217F30771F45E
:1050100080819181840F951F029611969C938E93A7
:105020008281938113969C938E931297E0E0F0E037
:10503000D80112968D919C911397009719F0F80161
:105040008C01F6CF8D919C9198012E5F3F4F820F7E
:10505000931F2091AB053091AC052817390769F4EF
:10506000309729F41092AE051092AD0502C013825C
:1050700012821093AC050093AB05DF91CF911F9185
:105080000F910895FB01DC0102C001900D92415087
:105090005040D8F70895DC0101C06D934150504055
:1050A000E0F70895FB01DC018D910190801901105A
:0A50B000D9F3990B0895F894FFCF8F
:1050BA000000AF0580000100000001000E018E0112
:1050CA00000000000B0006001A01A40405000000FD
:1050DA000200A8040E0000000200C4041000000030
:1050EA000500F6040F000000080076050B0000001A
:1050FA0002007A05060000000100D801DF01E9017B
:10510A00E801F101F001FA01F90102020C02780248
:10511A00170221022A023E025E027E0204000400F5
:10512A000100010002000200040004000100040062
:10513A0002000200040008000E0010000A000AD74C
:10514A00233C0AD7233C00000000000000000000B6
:10515A000000000000000000000000000000000045
:10516A0000400000803F00000000010101007713A9
:10517A00771301FF53696D756C6174696F6E2066F0
:10518A00696E6973686564007265616C5F54007268
:10519A0065616C33325F540075696E74385F540010
:1051AA0075696E7431365F540075696E7433325F97
:1051BA005400626F6F6C65616E5F540066636E5F68
:1051CA0063616C6C5F5400706F696E7465725F54D2
:1051DA0000616374696F6E5F540074696D65725F14
:1051EA0075696E7433325F706169725F5400636F00
:1051FA006465727461726765745F61726475696E01
:10520A006F626173655F696E7465725F5400655F92
:10521A00636F6465727461726765745F61726475E5
:10522A00696E6F626173655F696E745F5400636F64
:10523A006465727461726765745F61726475696EC0
:10524A006F626173655F626C6F636B5F5400017EAE
:10525A000500000000CA1543175A1574156615A9EA
:10526A001500000000F9162D77002D69676E6F7220
:10527A00652D61726700436F756C64206E6F7420D0
:10528A006372656174652065787465726E616C20FD
:10529A006D6F6465207573657220646174612E2078
:1052AA00204F7574206F66206D656D6F72792E0AB6
:0252BA000000F2
:00000001FF
